:020000040800F2
:100000003056002075020008B9100008130F0008D0
:10001000B5100008F5070008C92C00080000000012
:10002000000000000000000000000000DD010008EA
:10003000290C0008000000002102000839590008BE
:100040008F0200088F0200088F0200088F0200084C
:100050008F0200088F0200088F0200088F0200083C
:100060008F0200088F0200088F0200088F0200082C
:100070008F0200088F0200088F0200088F0200081C
:100080008F0200088F0200088F0200088F0200080C
:100090008F0200088F0200088F0200088F020008FC
:1000A0008F0200088F0200088F0200088F020008EC
:1000B000092B00088F0200088F0200088F02000839
:1000C0008F0200088F0200088F0200088F020008CC
:1000D0008F0200088F0200088F0200088F020008BC
:1000E0008F0200088F0200088F0200088F020008AC
:1000F0008F0200088F0200088F0200088F0200089C
:100100008F0200088F0200088F0200088F0200088B
:100110008F0200088F0200088F0200088F0200087B
:100120008F0200088F0200088F0200088F0200086B
:1001300000F002F800F042F80AA090E8000C8244B7
:100140008344AAF10107DA4501D100F037F8AFF294
:10015000090EBAE80F0013F0010F18BFFB1A43F0A5
:10016000010318471460000034600000103A24BFF7
:1001700078C878C1FAD8520724BF30C830C144BF0C
:1001800004680C607047000000230024002500264E
:10019000103A28BF78C1FBD8520728BF30C148BFEA
:1001A0000B607047642900F0D180732900F0B7829A
:1001B000002070471FB51FBD10B510BD00F0E8FA54
:1001C0001146FFF7F7FF04F04DF900F006FB03B40A
:1001D000FFF7F2FF03BC02F079FD0000224B196823
:1001E0000868B0E8F00F80F30988BFF36F8F4FF015
:1001F000000080F311884EF00D0E704700000000E3
:1002000006480068006880F3088862B661B6BFF3EC
:100210004F8FBFF36F8F00DF00BF00BF08ED00E01E
:10022000EFF30980BFF36F8F0F4B1A6820E9F00FCF
:10023000106008B54FF0BF0080F31188BFF34F8FF7
:10024000BFF36F8F05F018FB4FF0000080F31188AB
:10025000BDE8084019680868B0E8F00F80F3098825
:10026000BFF36F8F704700BF54000020EFF305808D
:10027000704700000948804709480047FEE7FEE74D
:10028000FEE7FEE7FEE7FEE7FEE7FEE7FEE7FEE746
:1002900004480549054A064B70470000A92A000892
:1002A0003101000830520020305600203054002028
:1002B00030540020704700000FB4044910B503AA61
:1002C000029800F031FA10BC5DF814FB4C000020DD
:1002D0000FB41CB5074B06AA7B44694600900598ED
:1002E00000F0F3F90020694600F002FA1CBC5DF84A
:1002F00014FB00001504000070B50C460546012AE9
:1003000005D02878800600D5EA69002302E00123A1
:1003100005E05B1C934202D2E05C0028F9D1A86999
:10032000E618C01AA861286A184428622846AFF364
:10033000008004E0D5E9012114F8010B9047B44294
:10034000F8D32846AFF3008070BD00002DE9F041DE
:100350000646002410687529314616A510D0AFF363
:100360000080002802DA404213A507E031688A07BE
:1003700001D512A502E0490704D511A5012401E029
:10038000AFF3008000210A2206F1240709E0B0FB48
:10039000F2FCB0FBF2F302FB1C003030785418463C
:1003A000491C0028F3D123462A463046BDE8F041D7
:1003B00000F02CB9000000002D0000002B00000010
:1003C000200000002DE9F0410F460546002028627C
:1003D0002846E968884770B3252805D0D5E901216A
:1003E0009047286A401CF2E7E968284600268847BB
:1003F0006C2804460AD0682C08D04C2C35D06A2CC6
:1004000031D0742C31D07A2C2FD016E0E968064612
:1004100028468847B042044608D16C2E23D04FF4BA
:1004200080662846E9688847044606E06C2E03D0BB
:100430004FF4807601E01EE04026E4B1A4F14100D3
:10044000192802D8203446F400663A462146284648
:100450002E60FFF7A7FE60B1012808D0FF1D27F02E
:1004600007070837B4E78026DBE70026D9E73F1DFA
:10047000AEE72046B2E7286ABDE8F08110B5431C1C
:1004800002E010F8011B71B18107FAD14FF001327F
:1004900002C88C1A8C4314EAC211F9D0C01A0A0699
:1004A00003D0C01E10BDC01A10BD0A0401D0801EAA
:1004B00010BD0902FCD0401E10BD032A40F230805E
:1004C00010F0030C00F0158011F8013BBCF1020F95
:1004D000624498BF11F801CB00F8013B38BF11F816
:1004E000013BA2F1040298BF00F801CB38BF00F82D
:1004F000013B11F0030300F02580083AC0F00880AA
:1005000051F8043B083A51F804CBA0E80810F5E78D
:10051000121D5CBF51F8043B40F8043BAFF3008070
:10052000D20724BF11F8013B11F801CB48BF11F8E5
:10053000012B24BF00F8013B00F801CB48BF00F8B5
:10054000012B704710B5203AC0F00B80B1E818506D
:10055000203AA0E81850B1E81850A0E81850BFF4AD
:10056000F5AF5FEA027C24BFB1E81850A0E818504C
:1005700044BF18C918C0BDE810405FEA827C24BFA0
:1005800051F8043B40F8043B08BF7047D20728BF2E
:1005900031F8023B48BF11F8012B28BF20F8023B7D
:1005A00048BF00F8012B704702F0FF0343EA032223
:1005B00042EA024200F0CCB84FF0000200B5134608
:1005C00094469646203922BFA0E80C50A0E80C5073
:1005D000B1F12001BFF4F7AF090728BFA0E80C5024
:1005E00048BF0CC05DF804EB890028BF40F8042B1D
:1005F00008BF704748BF20F8022B11F0804F18BF8A
:1006000000F8012B70477047704770472DE9F0479D
:100610000D4699469246044600F124080168880672
:1006200004D5E06921F01001216000E00120A8421A
:1006300001DD471B00E00027A1697A1902EB0900E0
:10064000081AA0612078C00602D42046AFF30080CB
:10065000002608E0D4E901211AF806009047206A34
:10066000401C761C20624E45F4DB2078C0060AD57B
:100670002046AFF3008006E0D4E901213020904706
:10068000206A401C2062381EA7F10107F4DC07E055
:10069000D4E9012118F805009047206A401C206227
:1006A000281EA5F10105F3DC2046AFF30080207879
:1006B000000602D50220BDE8F0870120FBE700001C
:1006C00001694A1C02610878704700B58FB0CDE916
:1006D00001310021059105497944CDE90310114606
:1006E0006846FFF76FFE0FB000BD0000E5FFFFFF9B
:1006F0000A6802F8010B0A60704710B5436913B12C
:10070000AFF3008001E0FFF7F7FD012010BD127884
:1007100000F124010A7000224A700122EDE71168FD
:100720004FF0FF32E9E70000074B70B50D467B4400
:10073000FFF7CBFF0446284603F05EFD10B14FF0F3
:10074000FF3070BD204670BD753B00004FF00002C9
:100750000429C0F0128010F0030C3FF42FAFCCF14D
:10076000040CBCF1020F18BF00F8012BA8BF20F841
:10077000022BA1EB0C01FFF721BF5FEAC17C24BF74
:1007800000F8012B00F8012B48BF00F8012B70473F
:10079000754600F02BF8AE4605006946534620F03A
:1007A0000700854618B020B5FFF772FDBDE8204070
:1007B0004FF000064FF000074FF000084FF0000B1D
:1007C00021F00701AC46ACE8C009ACE8C009ACE8D0
:1007D000C009ACE8C0098D46704710B50446AFF3B8
:1007E00000802046BDE81040FFF7F1BC004870478C
:1007F000CC51002000BFFEE770B52A254FF48034AD
:1008000000E0641E24B1802000F0B6FD0028F8D07E
:1008100014B90325284670BD40F2FF5000F06AFD70
:100820002846F8E72DE9F04106462A274848456B57
:1008300001E04748456B05F045000028F9D005F078
:10084000040030B10327042000F054FD3846BDE811
:10085000F08105F0010028B10127012000F04AFDD8
:100860003846F4E700F082FDB04202D01027384647
:10087000EDE740F2FF5000F03DFD002000F090FD5C
:1008800004463448204008B93846E0E704F0004008
:1008900008B11C20DBE704F0804008B10920D6E74E
:1008A00004F0005008B10A20D1E704F0805008B1EC
:1008B0000B20CCE704F0006008B10C20C7E704F07F
:1008C000806008B10D20C2E704F0807008B10E20EE
:1008D000BDE704F4000008B10F20B8E704F480007D
:1008E00008B11020B3E704F4001008B11120AEE7FE
:1008F00004F4801008B11220A9E704F4002008B124
:100900001320A4E704F4802008B114209FE704F426
:10091000003008B115209AE704F4803008B11620A1
:1009200095E704F4004008B1172090E704F48040F4
:1009300008B118208BE704F4005008B1192086E7AD
:1009400004F0080008B11A2081E738467FE700006C
:100950000080014008E0FFFD70B52A251048446B77
:1009600001E00F48446B04F045000028F9D004F082
:10097000040028B10325042000F0BCFC284670BD0B
:1009800004F0010028B10125012000F0B3FC284645
:10099000F5E740F2FF5000F0ADFC2846EFE700001D
:1009A0000080014070B52A250B48446B01E00A48DD
:1009B000446B04F045000028F9D004F0040028B18D
:1009C0000325042000F096FC284670BD40F2FF503D
:1009D00000F090FC2846F8E7008001402DE9F04146
:1009E00006460F464FF02A082248456B01E0214891
:1009F000456B05F045000028F9D005F0040038B13A
:100A00004FF00308042000F075FC4046BDE8F0817B
:100A100005F0010030B14FF00108012000F06AFC40
:100A20004046F3E700F0A2FCB04203D04FF01008BC
:100A30004046EBE740F2FF5000F05CFC002000F085
:100A4000AFFC044604F4604018B9200C38804046DE
:100A5000DCE704F4005008B11320D7E704F4804029
:100A600008B11020D2E704F4004008B10F20CDE710
:100A70004046CBE70080014070B52A264FF4803510
:100A80000F48446B02E06D1E0D48446B04F04500B6
:100A900008B9002DF7D115B104F0040028B10326E0
:100AA000042000F027FC304670BD04F0400028B15F
:100AB0002A26402000F01EFC3046F5E73046F3E7DA
:100AC0000080014000F0805111B10349086001E04D
:100AD00002494860704700000404024000000240E0
:100AE00021B1026842F00102026004E002684FF6A0
:100AF000FE731A400260704701460020002201F098
:100B0000805313B1054B1A6801E0054B1A6802EADD
:100B100001030BB1012000E00020704700040240F7
:100B20000000024010B50022026847F6F0739A43B5
:100B30000C6A8B6823430C6923434C6923438C69FB
:100B40002343CC6923434C6A23438C6A23431A43CF
:100B50000260CB6843600B6883604B68C36010BD64
:100B600007A0FFF7A9FB09E0084909A0FFF7A4FBCC
:100B700002F0EEFB4FF4FA6004F0EEFDF4E7000043
:100B80003232323232320D0A000000005561000864
:100B900077656C636F6D6520746F205B25735D0DE9
:100BA0000A00000006A0FFF787FB07E0074908A03E
:100BB000FFF782FB4FF47A7004F0CEFDF6E70000F9
:100BC000333333333333330D0A0000005F610008E1
:100BD00077656C636F6D6520746F205B25735D0DA9
:100BE0000A00000007A0FFF767FB09E0084909A019
:100BF000FFF762FB02F04AFB4FF4FA6004F0ACFD31
:100C0000F4E700003131313131310D0A00000000CC
:100C10004761000877656C636F6D6520746F205BBA
:100C200025735D0D0A000000704700002DE9FC41AE
:100C300007460D4600262A24002000900190082037
:100C40005C49086010204860402088600020C8602F
:100C50004FF480600861084600F0DCFB1020FFF7CD
:100C6000E1FD04462A2C02D02046BDE8FC81524812
:100C7000008800044F4908603720486040208860A1
:100C80000020C8604FF480600861084600F0C2FB95
:100C90003720FFF7C7FD04462A2C01D02046E4E7A1
:100CA0004648474908600820486030208860022094
:100CB000C8600020086101204861084600F02CFB54
:100CC00000203C49086033204860402088600020B4
:100CD000C8604FF480600861084600F09BFB332039
:100CE000FFF7A0FD04462A2C01D02046BDE709E00D
:100CF0004FF4001000F040FB20B100F085FB4DF8F0
:100D00002600761C2F48406B40F22A6108400028DC
:100D1000EED0082000F030FB28B1082000F0EAFAFD
:100D200004242046A1E7022000F026FB28B102207F
:100D300000F0E0FA0224204697E7202000F01CFB98
:100D400028B1202000F0D6FA062420468DE74FF483
:100D5000007000F011FB30B14FF4007000F0CAFADF
:100D60000724204681E740F2FF5000F0C3FA0098C4
:100D70000006009901F47F4140EA0120009901F446
:100D80007F0140EA1120009940EA116068600198F3
:100D90000006019901F47F4140EA0120019901F424
:100DA0007F0140EA1120019940EA11602860204645
:100DB0005BE70000A0510020C4000020FFFF0F00EF
:100DC000B45100200080014010B54FF40070094973
:100DD00008801820C87003208870074800F00EF8BB
:100DE0004FF48060034908800420C870024800F076
:100DF00005F810BD14000020000801402DE9F04165
:100E0000024600250026002000230024002791F838
:100E100003C00CF00F0591F803C00CF0100CBCF1EE
:100E2000000F03D091F802C04CEA050591F800C00C
:100E3000BCF1000F31D0146800202BE04FF0010C02
:100E40000CFA00F3B1F800C00CEA03069E4220D170
:100E500083004FF00F0C0CFA03F7BC4305FA03FCB8
:100E60004CEA040491F803C0BCF1280F06D14FF0FE
:100E7000010C0CFA00FCC2F814C00AE091F803C09F
:100E8000BCF1480F05D14FF0010C0CFA00FCC2F880
:100E900010C0401C0828D1D31460B1F800C0BCF1C8
:100EA000FF0F34DD546800202EE000F1080C4FF0F5
:100EB000010808FA0CF3B1F800C00CEA03069E42E0
:100EC00021D183004FF00F0C0CFA03F7BC4305FA55
:100ED00003FC4CEA040491F803C0BCF1280F05D1CF
:100EE00000F1080C08FA0CF8C2F8148091F803C05D
:100EF000BCF1480F07D100F1080C4FF0010808FAC7
:100F00000CF8C2F81080401C0828CED35460BDE80D
:100F1000F08100BFFEE700007CB504462A250020D2
:100F2000019000905F48008800045F4908600D2030
:100F30004860402088600020C8604FF480600861ED
:100F4000084600F067FA5948406B009002E05748A5
:100F5000406B0090009800F045000028F7D0009802
:100F600000F0040028B10325042000F0C3F928464E
:100F70007CBD009800F0010028B10125012000F09F
:100F8000B9F92846F4E700F0F1F9009000980D282F
:100F900002D010252846EBE740F2FF5000F0AAF9F6
:100FA000002000F0FDF901900198C0F3432020706B
:100FB0003F490198084008B92846D9E7019800F050
:100FC000004008B11C20D3E7019800F0804008B130
:100FD0000920CDE7019800F0005008B10A20C7E7CA
:100FE000019800F0805008B10B20C1E7019800F093
:100FF000006008B10C20BBE7019800F0806008B1E8
:101000000D20B5E7019800F0807008B10E20AFE721
:10101000019800F4000008B10F20A9E7019800F43E
:10102000800008B11020A3E7019800F4001008B177
:1010300011209DE7019800F4801008B1122097E775
:10104000019800F4002008B1132091E7019800F402
:10105000802008B114208BE7019800F4003008B11B
:10106000152085E7019800F4803008B116207FE74D
:10107000019800F4004008B1172079E7019800F4C6
:10108000804008B1182073E7019800F4005008B1BF
:1010900019206DE7019800F0080008B11A2067E7F1
:1010A000284665E7C4000020A051002000800140D0
:1010B00008E0FFFD00BFFEE77047000029B1064AC7
:1010C00052690243044B5A6104E0034A5269824365
:1010D000014B5A61704700000010024029B1064AD6
:1010E00092690243044B9A6104E0034A9269824385
:1010F000014B9A61704700000010024030B500219A
:101100000022002400232D4D6D6805F00C0121B153
:10111000042905D0082923D105E0294D056022E0E6
:10112000274D05601FE0254D6D6805F47012234DB5
:101130006D6805F48034022505EB92421CB9214DFF
:10114000554305600BE01D4D6D6805F400351DB17C
:101150001C4D5543056002E0194D5543056002E002
:10116000174D056000BF00BF144D6D6805F0F0011C
:101170000909154D6B5C0568DD4045600F4D6D68D4
:1011800005F4E061090A104D6B5C4568DD4085603F
:101190000A4D6D6805F46051C90A0B4D6B5C4568DA
:1011A000DD40C560054D6D6805F44041890B074D74
:1011B0006B5CC568B5FBF3F5056130BD00100240FE
:1011C00000127A0000093D000000002010000020FD
:1011D0007CB505462A2400200090019000F0E0F83C
:1011E00000F0007010B10E2420467CBD3F490988F4
:1011F00088B26946FFF71AFD04462A2C01D0204622
:10120000F3E7012D38D1019800F48020002830D078
:10121000364800880004364908603720486040207E
:1012200088600020C860A8020861084600F0F2F853
:101230003720FFF7F7FA04462A2C01D02046D4E7DE
:1012400002202B490860062048604020886000206A
:10125000C8604FF480600861084600F0DBF80620A3
:10126000FFF7E0FA04462A2C01D02046BDE72046CD
:10127000BBE725242046B8E7019800F4803078B316
:101280001A48008800041A49086037204860402046
:1012900088600020C8604FF480600861084600F054
:1012A000B9F83720FFF7BEFA04462A2C01D02046B1
:1012B0009BE700200E4908600620486040208860B7
:1012C0000020C8604FF480600861084600F0A2F872
:1012D0000620FFF7A7FA04462A2C02D0204684E70E
:1012E00001E0204681E7252420467EE7C400002057
:1012F000A051002001498863704700000080014030
:101300000149086070470000A000304201490860B0
:10131000704700008C05304200210A4B02685A6277
:1013200042689A621A46D16A21F0F701D0E9022395
:101330001A4303691A4343691A431143014AD162AC
:1013400070470000008001400020064908604860A6
:101350008860C86048628862C86203488863002069
:10136000C863704700800140FF07C0000148006962
:10137000C0B270470080014001460020034A526B12
:101380000A400AB1012000E00020704700800140BF
:101390000248006800F00300704700000080014030
:1013A00008B50146002000900248084400900098CB
:1013B000006808BD1480014029B1064AD26B02437F
:1013C000044BDA6304E0034AD26B8243014BDA63D5
:1013D000704700000080014000210A4A516847F62A
:1013E000FF629143027D83681A4343681A43C368CE
:1013F0001A4303681A4303691A431143014A5160AF
:1014000070470000008001400148006870470000FC
:10141000808001400021094B02689A601A46D16819
:101420006FF30A01D0E901231A43C3681A43036921
:101430001A431143014AD160704700000080014007
:101440000549096821F00301034A11601146096842
:1014500001431160704700000080014001490860AD
:10146000704700008080014010B50248FFF744FB40
:1014700010BD00000020001070B504462A25224847
:101480000068032802D12725284670BD1E48006841
:1014900038B11D480068012803D01B4800680228A5
:1014A00030D1B4F5805F02D127252846EDE7B4F5A9
:1014B000006F15D10120FFF78BFE05462A2D21D1A3
:1014C00001201249087500200860486088604FF4C8
:1014D0000060C860002008610846FFF77DFF11E04A
:1014E0000020FFF775FE05462A2D0BD10120074984
:1014F00008750020086048608860C8600861084678
:10150000FFF76AFF2846C0E7C0000020885100208E
:1015100030B501462A200022AC4B1B7881F84E30B2
:10152000AB4B1B88A1F84C30AA4B1B681A0E9309D1
:101530000B70C2F383034B7002F003038B70A54B57
:101540001B68C3F30742CA70A24B1B88C3F3072270
:101550000A71A04B1A784A715B681A0E1301CB808E
:101560009C4B5B68C3F30742CB8843EA1213CB80E2
:1015700002F00F030B72974B9B88C3F30722D3092A
:101580004B72C2F380138B72C2F34013CB72C2F35F
:1015900000130B7300234B738C4B1B681BB18B4BDD
:1015A0001B68012B3CD193071B0D0B61894B1A79EA
:1015B0000B6943EA82030B61864B9B681A0E0B6929
:1015C00043EA92130B61C2F3C2030B7502F00703E7
:1015D0004B75804B9B68C3F3074253098B75C2F36D
:1015E0008203CB7593075B0F0B767A4B1B89C3F392
:1015F00007220B7E43EAD2130B760B695B1C4B640C
:101600000C7E4B6CA41C0125A5406B434B640C7AEB
:101610000123A3408B64D1E9113463434B6421E07F
:101620006A4B1B68022B1DD16A4B1A7993069B0AE1
:101630000B61684B9B681A0E0B6943EA02230B612E
:10164000644B9B68C3F307420B6913430B61614B07
:101650001B89C3F307220B695B1CDB044B644FF44B
:1016600000738B64C2F3801301F8193F93065B0E7D
:101670004B70584B1A7A4B7843EAD2134B7002F0F6
:101680007F038B70534BDB681A0ED309CB70C2F308
:1016900041130B71C2F382034B7193071B0F8B71C4
:1016A0004C4BDB68C3F307428B7943EA92138B718F
:1016B000C2F34013CB7100230B7202F001034B7293
:1016C000444B9B89C3F30722D3098B72C2F3801367
:1016D000CB72C2F340130B73C2F300134B73C2F30C
:1016E00081038B7302F00303CB733A4B1A7B5308CD
:1016F0000B7401234B74384B1B681A0ECA741939CA
:10170000354B1B68C3F307421402CC85324B1B8850
:10171000C3F30722CB8D1343CB852F4B1A781406C6
:101720000C635B681A0E0B6B43EA02440C632A4B92
:101730005B68C3F307420B6B43EA02240C63264B3E
:101740009B88C3F307220B6B13430B63224B1A795D
:1017500034235A54204B9B681A0E35235A541E4B7F
:101760009B68C3F3074214068C631B4B1B89C3F3AE
:1017700007228B6B43EA02448C63174B1A7A8B6BFC
:1017800043EA02248C63144BDB681A0E8B6B134301
:101790008B63114BDB68C3F307423C235B5C43EA7A
:1017A00012143C235C5413071C0DCC870A4B9B89F5
:1017B000C3F30722CB8F1343CB87074B1A7B540805
:1017C00040235C54012441235C5430BDC000002000
:1017D000C4000020185100202851002010B52A24F0
:1017E00000F042F9FFF7B0FD00F072F904462A2C30
:1017F00001D0204610BD00F033F804462A2C01D059
:101800002046F7E701201449087500200860486069
:101810008860C86008610846FFF7DEFD2A2C03D106
:101820000E48FFF775FE04462A2C06D10B49B1F885
:101830004C10080400F0CCFC04462A2C04D14FF4D0
:101840000060FFF719FE04462A2C03D1002000F0A7
:10185000D9FC04462046CDE78851002038510020AD
:1018600038B52A2401200090FFF792FD10B92524F5
:10187000204638BD45480068042829D00020444946
:10188000086002204860C02088600020C8604FF4D3
:10189000806008610846FFF7BDFDFFF75DF804466C
:1018A0002A2C01D02046E4E70020FFF779FD3949D2
:1018B00008600420FFF774FD364948600820FFF7F0
:1018C0006FFD344988600C20FFF76AFD3149C8601C
:1018D0002E48006858B12D480068012807D02B48D1
:1018E0000068062803D029480068022817D1002084
:1018F0002749086003204860402088600020C860B5
:101900004FF4806008610846FFF784FD69460320B4
:10191000FFF764F804462A2C01D02046A9E71B48AB
:10192000006804282FD0BDF800001B490860BDF8EE
:10193000000000041649086009204860C020886043
:101940000020C8604FF4806008610846FFF762FD20
:10195000FFF702F804462A2C01D0204689E7002030
:10196000FFF71EFD0D4908600420FFF719FD0B4924
:1019700048600820FFF714FD084988600C20FFF735
:101980000FFD0649C8602A24204672E7C0000020E7
:10199000A051002028510020C40000201851002030
:1019A00030B58BB005460C461348FFF78BF8002185
:1019B0001248FFF795F81248009001950020029018
:1019C000A0080390002004908020059080000690DD
:1019D00080000790002008904FF4005009900020EC
:1019E0000A9069460548FFF79DF801210348FFF773
:1019F00077F80BB030BD000000F000104404024046
:101A00008080014030B58BB005460C461348FFF787
:101A100059F800211248FFF763F812480090019529
:101A200010200290A00803900020049080200590D0
:101A30008000069080000790002008904FF400502E
:101A4000099000200A9069460548FFF76BF80121CC
:101A50000348FFF745F80BB030BD000000F0001060
:101A6000440402408080014008B50121B020FFF706
:101A700035FB4FF4F850ADF8000003208DF802005C
:101A800018208DF8030069460E48FFF7B7F90420C7
:101A9000ADF8000069460C48FFF7B0F94FF400605C
:101AA000ADF8000048208DF8030069460748FFF7AD
:101AB000A5F901218802FFF701FB01210220FFF7B0
:101AC000FDFA08BD0010014000140140001C014057
:101AD0002DE9F0412A240026002500274FF00008B8
:101AE000B2205B4908750020086048608860C860C3
:101AF00008610846FFF770FC0320FFF7A1FC0120F6
:101B0000FFF7FEFB00205349086048608860C8600A
:101B10004FF4806008610846FFF77CFCFEF76CFE1E
:101B200004462A2C02D02046BDE8F0814FF4D5703F
:101B30004849086008204860402088600020C8604C
:101B40004FF4806008610846FFF764FCFEF794FFDD
:101B500004462A2C05D101203F4908604FF08048F7
:101B600012E000203B490860372048604020886030
:101B70000020C8604FF4806008610846FFF74AFC07
:101B80003720FEF74FFE0446002032490860372018
:101B90004860402088600020C8604FF48060086181
:101BA0000846FFF737FC3720FEF73CFE04462A2C98
:101BB0004CD138E000202749086037204860402099
:101BC00088600020C8604FF4806008610846FFF715
:101BD00021FC3720FEF726FE04462A2C01D02046A1
:101BE000A2E71E4848EA00001A4908602920486018
:101BF000402088600020C8604FF48060086108467B
:101C0000FFF708FCFEF7CEFE04462A2C01D0204642
:101C10008AE70020FFF7C4FB0646012080EAD67061
:101C200080F001076D1C1FB94FF6FF708542C1D3CC
:101C30004FF6FF70854202D31B24204674E706F05E
:101C40008040061E02D002200349086020466BE750
:101C500088510020A0510020C0000020000010800A
:101C60002DE9F04706460F4614464FF02A084FF07C
:101C7000000935464FF0000A26B94FF026084046C5
:101C8000BDE8F0872A208A49087000208949086049
:101C90008949086089488A4908600020486088604E
:101CA000C860086148610846FFF736FB0020FFF76F
:101CB0002DFB0020FFF774FB00F0007018B14FF00F
:101CC0000E084046DCE77F480068022801D1040284
:101CD0007F0A002C21DDB4F5006F1EDC601E204061
:101CE000D8B9204601F0C7F9824677480460102031
:101CF00075494860402088600020C8604FF48060CB
:101D000008610846FFF786FB1020FEF78BFD804632
:101D1000B8F12A0F05D04046B2E74FF026084046FA
:101D2000AEE7664866490860084644604FEA0A1014
:101D300088600220C86000200861012048610846D0
:101D4000FFF7EAFA5C4804600020604908606048D8
:101D500006605D48076011205B494860402088604C
:101D60000020C8604FF4806008610846FFF752FB0E
:101D70001120FEF757FD8046B8F12A0F01D04046EA
:101D80007EE754480068022857D111E04FF4004024
:101D9000FFF7F2FA60B14FF0000905E0FFF734FBFE
:101DA00045F8290009F10109B9F1080FF6D32035EA
:101DB0004948406B40F22A6108400028E6D00820DC
:101DC000FFF7DAFA30B10820FFF794FA4FF0040871
:101DD000404655E70220FFF7CFFA30B10220FFF767
:101DE00089FA4FF0020840464AE72020FFF7C4FA7C
:101DF00030B12020FFF77EFA4FF0060840463FE75B
:101E00004FF40070FFF7B8FA38B14FF40070FFF7E5
:101E100071FA4FF00708404632E703E0FFF7F4FAA3
:101E200028602D1D4FF40010FFF7A6FA0028F5D109
:101E300040F2FF50FFF75EFA38E0264800680128BC
:101E400013D1012148F22A30FFF7B6FA00BF194832
:101E5000006818B9164800782A28F8D01448007885
:101E60002A2823D0124800780AE71A480068E8B9FF
:101E7000012140F22A30FFF79FFA0120FFF746FACE
:101E800021463046FFF78CFD00BFFFF7EDFA30B971
:101E90000848006818B9064800782A28F5D0044890
:101EA00000782A2802D002480078E9E64046E7E6B2
:101EB000DC000020E0000020CC000020FFFF0F002D
:101EC000B4510020C0000020A0510020D00000200C
:101ED000D8000020C8000020008001402DE9F05FFC
:101EE0000746894614461D464FF02A084FF0000A5F
:101EF0003E464FF0000B27B94FF026084046BDE89C
:101F0000F09F2A20A74908700020A7490860A74928
:101F10000860A748A7490860002048608860C8603A
:101F2000086148610846FFF7F7F90020FFF7EEF96E
:101F30000020FFF735FA00F0007018B14FF00E08DE
:101F40004046DCE79C480068022802D104024FEAC0
:101F50005929002C21DDB4F5006F1EDC601E2040E5
:101F6000D8B9204601F087F88346944804601020D1
:101F700092494860402088600020C8604FF480602B
:101F800008610846FFF746FA1020FEF74BFC804632
:101F9000B8F12A0F05D04046B1E74FF02608404679
:101FA000ADE7012D70D905FB04F0B0F1007F03D33C
:101FB0004FF026084046A2E705FB04F07B49086085
:101FC00001207F4908607F480760794879490860A7
:101FD00005FB04F048604FEA0B1088600220C860DF
:101FE00000200861012048610846FFF795F9734811
:101FF000C0F800901220714948604020886000209D
:10200000C8604FF4806008610846FFF703FA1220A9
:10201000FEF708FC8046B8F12A0F01D040466EE773
:102020006948006802287BD111E04FF40040FFF7B7
:10203000A3F960B14FF0000A05E0FFF7E5F946F8B3
:102040002A000AF1010ABAF1080FF6D320365F48D8
:10205000406B40F22A3108400028E6D00820FFF704
:102060008BF930B10820FFF745F94FF004084046DE
:1020700045E70220FFF780F938B10220FFF73AF96F
:102080004FF0020840463AE78AE02020FFF774F953
:1020900030B12020FFF72EF94FF0060840462EE71A
:1020A0004FF40070FFF768F938B14FF40070FFF794
:1020B00021F94FF00708404621E703E0FFF7A4F9B4
:1020C0003060361D4FF40010FFF756F90028F5D1A7
:1020D0004FF48070FFF750F918B33748006838B1F3
:1020E00035480068022803D033480068012818D119
:1020F0000020324908600C204860402088600020A1
:10210000C8604FF4806008610846FFF783F90C202F
:10211000FEF788FB8046B8F12A0F02D04046EEE673
:1021200004E040F2FF50FFF7E5F839E02648006888
:10213000012813D1012148F22A30FFF73DF900BFF1
:102140001948006818B9174800782A28F8D01548A7
:1021500000782A2824D013480078D0E61A4800686E
:10216000F0B9012140F22A30FFF726F90120FFF7EC
:10217000CDF805FB04F13846FFF712FC00BFFFF76E
:1021800073F930B90848006818B9064800782A2859
:10219000F5D0044800782A2802D002480078AEE63C
:1021A0004046ACE6DC000020E0000020CC0000202F
:1021B000FFFF0F00B4510020C0000020A0510020FC
:1021C000D0000020D8000020C8000020008001407E
:1021D00070B504462A250A4804600720084948606B
:1021E000402088600020C8604FF480600861084685
:1021F000FFF710F90720FEF715FB0546284670BDCE
:10220000A051002001462A2019B1012901D002293C
:1022100002D1024A116000E026207047C800002069
:102220002DE9FF5F81468A4614462A250020039047
:10223000029083460026019000270090C846B9F11D
:10224000000F04D12625284604B0BDE8F09F2A20BF
:10225000C24908700020C2490860C2490860C248EB
:10226000C2490860002048608860C8600861486111
:102270000846FFF751F80020FFF748F80020FFF765
:102280008FF800F0007010B10E252846DCE7B84842
:102290000068022802D104024FEA5A2A002C20DDED
:1022A000B4F5006F1DDC601E2040D0B9204600F060
:1022B000E2FE0390AF4804601020AE494860402021
:1022C00088600020C8604FF4806008610846FFF70E
:1022D000A1F81020FEF7A6FA05462A2D04D02846BC
:1022E000B2E726252846AFE7A34800880004A149A5
:1022F00008600D204860402088600020C8604FF4CE
:10230000806008610846FFF785F80D20FEF78AFA1D
:1023100005462A2D01D0284696E70020FFF740F811
:102320000190DFF844B21EE0ABF1010B9248008847
:102330000004904908600D2048604020886000201B
:10234000C8604FF4806008610846FFF763F80D200D
:10235000FEF768FA05462A2D01D0284674E70020CA
:10236000FFF71EF80190019800F4807010B9BBF1DE
:10237000000FD9D1BBF1000F01D1292064E77D48BE
:10238000C0F800A018207B494860402088600020E9
:10239000C8604FF4806008610846FFF73BF81820DA
:1023A000FEF740FA05462A2D01D028464CE76D4835
:1023B00004600020714908607148C0F800906A48C4
:1023C0006A4908600846446003980001886000205C
:1023D000C8600861012048610846FEF79DFF694812
:1023E0000068022866D134E04FF48040FEF7C4FF55
:1023F00078B35C480068801B20281ED259480078BA
:10240000801B00F0030020B956480068801B80083C
:1024100004E054480068801B8008401C009000279E
:1024200007E0D8F80000FFF719F87F1C08F104084E
:10243000361D009887420CD2F3E7002704E058F8D5
:102440002700FFF70BF87F1C082FF8D308F12008AE
:1024500020364D48406B40F21A6108400028C3D036
:102460000820FEF789FF28B10820FEF743FF042566
:102470002846E9E60220FEF77FFF28B10220FEF79A
:1024800039FF02252846DFE61020FEF775FF28B148
:102490001020FEF72FFF05252846D5E64FF40070E3
:1024A000FEF76AFFF0B34FF40070FEF723FF072535
:1024B0002846C9E633480068012813D1012144F2B7
:1024C0001A30FEF779FF00BF2548006818B9234885
:1024D00000782A28F8D0214800782A2825D01F48DB
:1024E0000078B1E627480068E0B9012140F21A30CF
:1024F000FEF762FF21464846FFF784FA0120FEF707
:1025000005FF00BFFEF7B0FF30B91548006818B9E5
:10251000124800782A28F5D0104800782A2804D0DC
:102520000E4800E001E000788EE640F2FF50FEF732
:10253000E1FE02A8FEF7F0FC054603E002A8FEF764
:10254000EBFC05462A2D07D19DF808000728F5D099
:102550009DF808000628F1D0284675E6DC0000202A
:10256000E0000020CC000020FFFF0F00B45100204D
:10257000C0000020A0510020C4000020D000002096
:10258000D4000020C8000020008001402DE9FE4F4B
:1025900081468A4614461E462A254FF0000B00202D
:1025A000029000270190C8460090B9F1000F03D1B6
:1025B00026252846BDE8FE8F2A20EC490870002019
:1025C000EB490860EB490860EB48EC4908600020E3
:1025D00048608860C860086148610846FEF79CFE54
:1025E0000020FEF793FE0020FEF7DAFE00F00070F8
:1025F00010B10E252846DDE7E1480068022802D127
:1026000004024FEA5A2A002C20DDB4F5006F1DDCCD
:10261000601E2040D0B9204600F02DFD8346D948E9
:1026200004601020D7494860402088600020C860BE
:102630004FF4806008610846FEF7ECFE1020FEF7BC
:10264000F1F805462A2D04D02846B3E7262528466A
:10265000B0E7CD4800880004CA4908600D204860F2
:10266000402088600020C8604FF480600861084600
:10267000FEF7D0FE0D20FEF7D5F805462A2D01D035
:10268000284697E7012E7AD906FB04F0B0F1007FC7
:1026900002D3262528468DE7B948006838B1B848E6
:1026A0000068012803D0B648006802282FD1B64838
:1026B00000880004B34908603720486040208860E3
:1026C0000020C8604FF4806008610846FEF7A2FE53
:1026D0003720FEF7A7F805462A2D01D0284669E7DE
:1026E000A84806601720A74948604020886000205D
:1026F000C8604FF4806008610846FEF78BFE172023
:10270000FEF790F805462A2D01D0284652E79D484D
:10271000C0F800A019209B49486040208860002034
:10272000C8604FF4806008610846FEF773FE192008
:10273000FEF778F805462A2D01D028463AE706FB31
:1027400004F08C4908600120904908609048C0F866
:10275000009089488949086006FB04F048604FEA08
:102760000B1088600020C86008610120486108469D
:10277000FEF7D2FD87480068022870D13EE0D1E024
:102780004FF48040FEF7F8FDC0B37A480068C01BE4
:10279000202811D30020009007E0009958F821006C
:1027A000FEF75CFE0098401C009000980828F4D3C7
:1027B00008F12008203721E06E480078C01B00F0A7
:1027C000030020B96B480068C01B800804E069481A
:1027D0000068C01B8008401C01900020009009E0A8
:1027E000D8F80000FEF73AFE0098401C009008F16F
:1027F00004083F1DDDE900108142F1D36648406BBB
:1028000040F21A3108400028BAD00820FEF7B4FD83
:1028100028B10820FEF76EFD04252846CAE60220EE
:10282000FEF7AAFD28B10220FEF764FD0225284626
:10283000C0E61020FEF7A0FD28B11020FEF75AFDDB
:1028400005252846B6E64FF40070FEF795FD38B131
:102850004FF40070FEF74EFD07252846AAE627E054
:102860004FF48070FEF788FD00285BD04448006874
:1028700038B143480068012803D041480068022865
:1028800050D100203F4908600C20486040208860FB
:102890000020C8604FF4806008610846FEF7BAFD6A
:1028A0000C20FDF7BFFF05462A2D3BD0284681E6C8
:1028B00038480068012813D1012144F21A30FEF78C
:1028C0007BFD00BF2A48006818B9284800782A28EC
:1028D000F8D0264800782A2824D02448007869E6D1
:1028E0002C480068F0B9012140F21A30FEF764FD6F
:1028F0000120FEF70BFD06FB04F14846FFF782F8C6
:1029000000BFFEF7B1FD30B91948006818B9174883
:1029100000782A28F5D0154800782A2802D01348D4
:10292000007847E640F2FF50FEF7E4FC00200090FC
:1029300002E00098401C00904FF6FF71009888421A
:10294000F7D302A8FEF7E8FA054603E002A8FEF76F
:10295000E3FA05462A2D07D19DF808000728F5D08F
:102960009DF808000628F1D0284623E6DC00002068
:10297000E0000020CC000020FFFF0F00B451002039
:10298000C0000020A0510020C4000020D000002082
:10299000D4000020C80000200080014010B504468B
:1029A000E1B2064800F08CF900BF4021034800F076
:1029B000E9F80128F9D1204610BD00000038014097
:1029C00010B500F001F810BD0CB50020019000908A
:1029D0003348006840F480303149086000BF304817
:1029E000006800F4003000900198401C01900098AD
:1029F00018B90198B0F5A06FF1D12948006800F42A
:102A0000003010B10120009001E0002000900098FB
:102A1000012843D12348006840F010002149086094
:102A20000846006820F0030008600846006840F08F
:102A3000020008601A484068194948600846406822
:102A400048600846406840F4806048600846406836
:102A500020F47C1048600846406840F4E810486064
:102A60000846006840F08070086000BF0C480068AD
:102A700000F000700028F9D00948406820F00300F9
:102A8000074948600846406840F00200486000BFBF
:102A90000348406800F00C000828F9D10CBD000084
:102AA000001002400020024010B51348006840F0BA
:102AB00001001149086008464068104908400E4965
:102AC0004860084600680E4908400B4908600846FF
:102AD000006820F4802008600846406820F4FE006A
:102AE00048604FF41F008860FFF76AFF4FF00060F6
:102AF0000449086010BD0000001002400000FFF80B
:102B0000FFFFF6FE08ED00E002480068401C0149A6
:102B1000086070471C00002021B1828942F40052F5
:102B2000828104E082894DF6FF731A4082817047EA
:102B300010B54FF4E13010490860002088810C2066
:102B4000488100200881C88088800C4800F04CF83B
:102B500001210A48FFF7E0FF0749094800F044F85F
:102B600001210748FFF7D8FF012240F22551034811
:102B700000F015F810BD0000F00000200038014002
:102B80000048004002460020B1F5007F00D100BFA0
:102B900013880B400BB1012000E000207047F0B516
:102BA0000346002400260025002040F66A17B9429B
:102BB00000D100BF1846C1F3421401F01F060127DF
:102BC00007FA06F5012C01D10C3004E0022C01D1EA
:102BD000103000E014301AB107682F43076002E09C
:102BE0000768AF430760F0BD2DE9F04786B00546A2
:102BF0000E460024A24600BFA1460027B08900B1BE
:102C000000BF2F462C8A4CF6FF700440F088044326
:102C10002C82AC894EF6F3100440B0883189084309
:102C2000718908430443AC81AC8A4FF6FF400440ED
:102C3000B0890443AC8201A8FEF760FA1F488742BE
:102C400002D1DDF810A001E0DDF80CA0A88900F4A5
:102C5000004040B10AEBCA0000EB0A10316849009D
:102C6000B0FBF1F807E00AEBCA0000EB0A1031688C
:102C70008900B0FBF1F86420B8FBF0F004012009F2
:102C8000642101FB1089A88900F4004040B1322082
:102C900000EBC900B0FBF1F000F00700044308E0CE
:102CA000322000EB09106421B0FBF1F000F00F00BE
:102CB00004432C8106B0BDE8F087000000380140D5
:102CC000C1F308028280704700BFFEE700BFFEE745
:102CD00070B504460D46607801232A4604F13001A0
:102CE00000F05BFD08B1032070BD94F82E1294F83B
:102CF0002F0241EA00204AF65521884201D00220E5
:102D0000F2E794F86900010694F8680041EA00418E
:102D100094F8670041EA002094F86610084320F018
:102D20007F400E49884201D10020DDE794F88500FC
:102D3000010694F8840041EA004194F8830041EAD6
:102D4000002094F88210084320F07F400349884215
:102D500001D10020C8E70120C6E700004641540029
:102D6000024600E0521C107810B110788842F9D168
:102D7000107870472DE9F74F82B00298D0F800B074
:102D80009BF80000A0F13009B9F1090F09D89BF8B0
:102D900001003A2805D10BF1020B0298C0F800B0EF
:102DA00001E04FF00009B9F1000F03D00B2005B08E
:102DB000BDE8F08FA54850F82940039804600CB98D
:102DC0000C20F4E7207878B1607800F00BFD8046A5
:102DD00008F0010040B9049820B108F0040008B1DF
:102DE0000A20E4E70020E2E70020207084F8019048
:102DF000607800F0B9FC804608F0010008B10320BB
:102E0000D5E7049820B108F0040008B10A20CEE705
:102E10004FF0000A51462046FFF75AFF0546012DA4
:102E200013D104F5F777387978B1F87A0106B87AD2
:102E300041EA0041787A41EA0020397A40EA010A01
:102E400051462046FFF744FF0546032D01D10120DE
:102E5000ADE745B93B20015D94F83C0041EA002014
:102E6000B0F5007F01D00D20A1E74620015D94F868
:102E7000470041EA002676B994F85700010694F815
:102E8000560041EA004194F8550041EA002094F8C8
:102E9000541040EA0106A6614020005DE070E07831
:102EA00046433E20015D94F83F0041EA0020504433
:102EB00020623D20005DA0704120015D94F8420039
:102EC00041EA002020814320015D94F8440041EA5A
:102ED00000200190019870B994F85300010694F80D
:102EE000520041EA004194F8510041EA002094F870
:102EF0005010084301903E20015D94F83F0041EAE4
:102F000000210198401A801B2189A0EB1110A178A3
:102F1000B0FBF1F0801C0090E061012540F6F771F4
:102F20000098884200D302254FF6F7710098884236
:102F300000D30325032D0FD194F85F00010694F808
:102F40005E0041EA004194F85D0041EA002094F8F7
:102F50005C100843606202E0206A30446062206ACC
:102F60003044218900EB1110A0624FF0FF30206146
:102F700000202071032D5CD1607194F8601094F8EA
:102F8000610041EA0020504460616078012304F14F
:102F90003001626900F001FCF0BB94F82E1294F845
:102FA0002F0241EA00204AF65521884241D13320C0
:102FB000005D01063220005D41EA00413120005DE4
:102FC00041EA002094F8301008432149884230D16A
:102FD00094F81702010694F8160241EA004194F8A9
:102FE000150241EA002094F8141208431949884256
:102FF0001FD194F81F02010694F81E0241EA004115
:1030000094F81D0241EA002094F81C120843E06085
:1030100094F81B02010600E00BE094F81A0241EA62
:10302000004194F8190241EA002094F8181208436C
:10303000206125700020E06207480088401C80B2B3
:1030400005490880E0800020B1E60000E80000208B
:103050005252614172724161EC0000200246891EA9
:10306000D069801E884201D8002070479378906A0A
:1030700001FB0300F9E70146002002E04910421C71
:10308000D0B20129FAD170472DE9F04705468846AC
:10309000D5F81C90B8F1000F05D1EE680EB14E4581
:1030A00010D301260EE04146284601F003F90746F9
:1030B000022F02D20120BDE8F0874F4501D23846E9
:1030C000F9E74646344600BF641C4C4504D302244D
:1030D000B44201D90020EEE72146284601F0EAF883
:1030E000074607B909E0781C08B1012F01D138461D
:1030F000E1E7B442E8D10020DDE700BF6FF07042A5
:103100002146284602F0ABF810B14FF0FF30D2E76D
:10311000B8F1000F08D022464146284602F09FF839
:1031200010B14FF0FF30C6E7EC602869401C20B1B9
:103130002869401E2861012068712046BBE7000015
:103140002DE9F35F009886690B222021304601F0BB
:1031500011FC00200546804682464FF00809019880
:10316000D0F800B000BF50460AF1010A1BF8004039
:10317000202C03DD2F2C01D05C2C00D156E02E2C0E
:1031800001D0C8450EDBB9F1080F01D12E2C02D0B9
:103190000620BDE8FC9F4FF008084FF00B09A80679
:1031A000050EE0E7802C01DB45F00305812C01DBF7
:1031B0009F2C03DDE02C1DDBFC2C1BDC50460AF1B0
:1031C000010A1BF80070402F01DB7E2F03DD802FEA
:1031D00005DBFC2F03DCA9F10100404501DC0620E2
:1031E000D7E7404608F101083454404608F1010889
:1031F00037541AE0214622A0FFF7B2FD08B106209D
:10320000C7E7412C04DB5A2C02DC45F0020508E03C
:10321000612C06DB7A2C04DC45F00105A4F12000CA
:10322000C4B2404608F1010834549CE700BF0BEBE0
:103230000A0101980160202C01DC042000E000203C
:103240000446B8F1000F01D10620A2E73078E52846
:1032500001D105203070B9F1080F01D1A806050E83
:1032600005F00300012801D144F0100405F00C0022
:10327000042801D144F00804F472002089E700001A
:1032800020222A2B2C5B3D5D7C7F000010B5ADF524
:103290001A7D40216846FDF78FF9132212A111A86B
:1032A00000F0DAFB04469CB91248016811A800F04E
:1032B000DDFA10AB4022694611A800F0C7FC0446B5
:1032C0005CB96A460C490DA0109BFCF7F5FF04E0C1
:1032D0002246094913A0FCF7EFFF11A800F0BBFA42
:1032E0000DF51A7D10BD0000746F6D5F6D696E2E57
:1032F00074787400400000203D6100085B25735D18
:1033000020665F72656164206F6B2C20725F62754E
:10331000663A2025732C206C656E6774683A202508
:10332000640D0A005B25735D206572726F72206EFA
:10333000756D62657220726573756C743A202564D0
:103340002C6F70656E206661696C640D0A00000068
:1033500030B5ADF51F7D142221A110A8FDF7F2F8BC
:1033600040216846FDF728F9132222A116A800F093
:1033700073FB0446002C27D121491998086016A830
:10338000199900F073FA1F4810AA1FA10368684634
:10339000FCF79EFF1B480068401C1A4908606846FD
:1033A000FDF76CF8054615AB2A46694616A800F0ED
:1033B0001BFE044624B9164916A0159AFCF77CFF9B
:1033C00016A800F058FD04E02246114919A0FCF7A8
:1033D00073FF16A800F03FFA0DF51F7D30BD000009
:1033E000436F6D65206F6E2C204D696E79616E6B39
:1033F000756E0000746F6D5F6D696E2E7478740069
:10340000400000204400002025735F256400000078
:10341000326100085B25735D20665F7772697465B1
:10342000206F6B2C206C656E6774683A2025640DE4
:103430000A0000005B25735D206572726F72206E5A
:10344000756D62657220726573756C743A202564BF
:103450002C6F70656E206661696C640D0A00000057
:103460002DE9F04104460021204600F02FF90546E1
:1034700015B12846BDE8F08100BF2169206801F040
:1034800083FA054605B116E0666937780FB9042559
:1034900011E0F07A00F0080030B90B223046A16943
:1034A00001F048FA00B906E00021204600F006F8D5
:1034B0000546002DE1D000BF2846DBE72DE9F041AD
:1034C00004468846E088401C86B20EB1206910B9D7
:1034D0000420BDE8F08106F00F0000286FD12069BC
:1034E000401C2061E06828B920680089B04266DC91
:1034F0000420EEE720688078401E00EA16100028BD
:103500005DD1E168206800F0D5FE0546012D01D8A7
:103510000220DEE7681C08B90120DAE72068C069EC
:10352000A84246D8B8F1000F01D10420D1E7E168E4
:103530002068FFF7A9FD05460DB90720C9E7012D51
:1035400001D10220C5E7681C08B90120C1E70021AC
:10355000206801F019FA08B10120BAE7216801F1E9
:1035600030004FF40072002101F004FA294620686F
:10357000FFF774FD2168C862002710E00120216870
:1035800008710021206801F0FFF908B10120A0E7CF
:103590002068C06A401C2168C862781CC7B22068D5
:1035A0008078B842EADC2068C06AC01B2168C86223
:1035B00000BFE56029462068FFF750FD2061E680E6
:1035C0002068303006F00F0100EB411060610020F0
:1035D0007FE72DE9F041044604251BE021692068BE
:1035E00001F0D2F9054605B117E067693E780EB9DA
:1035F000042512E0E52E06D02E2E04D0F87A00F035
:10360000080000B909E000212046FFF757FF0546F2
:1036100005B102E020690028E0D100BF0DB1002013
:1036200020612846BDE8F0812DE9F04104460021E3
:10363000204600F04BF80546ADB900BF216920686F
:1036400001F0A2F9054605B10CE060690678E52EA7
:1036500000D006B906E001212046FFF72FFF0546FE
:10366000002DEBD000BFC5B92169206801F08CF9AD
:10367000054695B9676920220021384601F07AF99C
:103680000B223846A16901F068F9A069C07A00F000
:10369000180038730120216808712846BDE8F081C0
:1036A00070B50446E188204600F010F805465DB983
:1036B0002169206801F068F905462DB9E5206169A6
:1036C0000870012021680871284670BD2DE9F0417D
:1036D00004460E46E680A568012D03D02068C06927
:1036E000A84202D80220BDE8F0812DB920680078F8
:1036F000032801D12068456A65B9E5602068008922
:10370000B04201DC0220EEE72068406A00EB1610B0
:10371000206120E020688078070112E029462068B7
:1037200000F0C8FD0546681C08B90120DBE7022D42
:1037300003D32068C069A84201D80220D3E7F01B58
:1037400086B2BE42EADAE56029462068FFF786FCC9
:1037500000EB161020612068303006F00F0100EBFE
:10376000411060610020BEE710B50446FEF736F850
:103770002A2804D103A0FCF79FFD002010BD0120E2
:10378000FCE70000496E69742073756363657373A9
:103790000A0000000346002070472DE9F04106466C
:1037A0000F4614461D464FF02A0806B915B90420E5
:1037B000BDE8F081012D06D161026A023846FEF7AC
:1037C0004FFA804607E061022B464FF400723846FC
:1037D000FEF784FB8046B8F12A0F01D10020E7E70D
:1037E0000120E5E710B5044624B103A0FCF764FD11
:1037F000012010BD0020FCE74F6E6C7920737570BE
:10380000706F72742064727620300A002DE9F041E6
:1038100006460F4614461D464FF02A0806B915B94C
:103820000420BDE8F081012D06D161026A0238460C
:10383000FEF7F6FC804607E061022B464FF400726B
:103840003846FEF7A3FE8046B8F12A0F01D10020CA
:10385000E7E70120E5E770B50446204600F00BFBE2
:1038600005460DB900202060284670BD2DE9F047BF
:1038700004460E46A188206802F02EF88246BAF16E
:10388000000F02D05046BDE8F087A07900F080001C
:1038900008B10220F7E7E068B04204D2A07900F056
:1038A000020000B9E668D4F808904FF00008C4F8A8
:1038B0000880FF20E071002E7DD0206880784702CC
:1038C000B9F1000F11D0701EB0FBF7F1A9F10100A2
:1038D000B0FBF7F0814208D3A9F10100791E8843BB
:1038E000A060A068361A656918E02569ADB90021A5
:1038F0002068FFF7C9FB0546012D05D1A07940F0EE
:103900008000A0710220BEE7681C28B9A07940F0B1
:103910008000A0710120B6E725616561002D4AD0C5
:1039200029E0A07900F0020038B129462068FFF7AD
:10393000ABFB054635B93E461FE02946206800F03E
:10394000B9FC0546681C28B9A07940F08000A07138
:10395000012098E7012D03D92068C069A84205D845
:10396000A07940F08000A07102208CE76561A0681A
:103970003844A060F61BBE42D3D800BFA0683044D4
:10398000A060C6F34720E071C6F3080068B129467D
:103990002068FFF763FB8046B8F1000F06D1A079DD
:1039A00040F08000A07102206DE704E0E0798044DF
:1039B000E079401CE0712089C0F3080050B3A06991
:1039C000404527D0A07900F0400090B121684878A8
:1039D000012304F12401A269FFF718FF28B1A0799F
:1039E00040F08000A07101204DE7A07920F0400058
:1039F000A071216848780123424604F12401FFF7B1
:103A0000CCFE28B1A07940F08000A07101203AE7F7
:103A1000C4F81880D4E90201884205D9A068E060A2
:103A2000A07940F02000A07150462CE70246012A00
:103A300001DB0B207047074850F822300BB1002003
:103A4000187009B100200870024840F822100020C8
:103A5000F0E70000E80000202DE9F7438AB00546B2
:103A600016460020286006F01F0606F01E0203A975
:103A70000BA8FFF77FF907461FB138460DB0BDE828
:103A8000F083CDF824D003A80B9900F0B9FB0746CA
:103A900006F01C00002868D067B1042F03D103A8EA
:103AA000FFF7C2FD07460FB13846E7E746F00806C4
:103AB000089C41E006F0040008B10820DEE7089CFD
:103AC0001CB1E07A00F0110008B10720D6E706F03B
:103AD000080080B3A17EE07E41EA0021227D607D66
:103AE00042EA002041EA004900202075002161756A
:103AF000A076E17620776177A177E17701200399BD
:103B000008710398D0F82C80B9F1000F0BD049460A
:103B1000039801F0B5FC07460FB13846AEE7A9F1AE
:103B200001000399C8604146039800F02DFF074645
:103B30000FB13846A2E7FFE706F00800A0B1002069
:103B4000E07200F040FC804684F80E804FEA1821B5
:103B5000E1734FEA184121744FEA18616174012042
:103B60000399087146F0200613E00FB1384685E747
:103B7000089C1CB1E07A00F0100008B104207DE739
:103B800006F0020028B1E07A00F0010008B1072039
:103B900074E70398C06AE86108982862AE71A17E54
:103BA000E07E41EA0021227D607D42EA002041EA78
:103BB00000402861E07F0106A07F41EA0041607F6C
:103BC00041EA0020217F0843E8600020A860FF2030
:103BD000E8710020A861039828600398C088A88035
:103BE00000204BE773B584B004460022214605A8A7
:103BF000FFF7C0F8064636BB01A8A061204605992C
:103C000000F0FEFA0646DEB9656985B1E87A00F093
:103C1000100058B1A97EE87E41EA00212A7D687D26
:103C200042EA002041EA0040A06000E005263EB9DB
:103C30002068C088A08000212046FFF747FD064687
:103C4000042E00D10526304606B070BD2DE9FF4F89
:103C500083B0044615469946DDF810A00020C9F847
:103C60000000A188206801F037FE0290029818B188
:103C7000029807B0BDE8F08FA07900F0800008B18D
:103C80000220F6E7A07900F0010008B90720F0E76C
:103C9000D4E90210401A01900198854200D9019D93
:103CA000B8E02089C0F3080000287BD1E0792168C2
:103CB000897888421EDBA06808B9206903E0616941
:103CC000206800F0F7FA8346BBF1010F05D8A07910
:103CD00040F08000A0710220CBE70BF1010028B971
:103CE000A07940F08000A0710120C2E7C4F814B0B0
:103CF0000020E07161692068FFF7B0F906462EB92F
:103D0000A07940F08000A0710220B2E7E07906447B
:103D10004FEA5528B8F1000F31D0E07940442168CE
:103D20008978884204D920688078E179A0EB01087D
:103D300008F0FF032168487832465146FFF72DFD11
:103D400028B1A07940F08000A071012091E7A0790E
:103D500000F0400068B1A069801B404509D2A1690C
:103D6000891B0AEB41204FF4007204F1240100F09A
:103D7000F4FDE0794044E0714FEA482740E0A07943
:103D800000F0400098B121684878012304F1240133
:103D9000A269FFF73BFD30B1A07940F08000A0712F
:103DA000012066E719E0A07920F04000A071A06929
:103DB000B0420ED0216848780123324604F1240134
:103DC000FFF7EBFC28B1A07940F08000A071012042
:103DD0004FE7A661E079401CE0712089C0F308003C
:103DE000C0F50077AF4200D92F462089C0F3080202
:103DF00004F1240011183A46504600F0AEFD00BF11
:103E0000BA44A0683844A060D9F800003844C9F822
:103E10000000ED1B002D7FF444AF002029E7FEB524
:103E200004460E46A188206801F056FD054605BBF4
:103E3000C4F818D02EB900212046FFF747FC0546EC
:103E400017E02046FFF7C5FB0546042D02D10020F0
:103E5000206100256DB93146204600F0B6FA0021F8
:103E60002046FFF72BFB0546042D02D100202061E0
:103E700000252846FEBD2DE9F0410446A1882068B2
:103E800001F02AFD0746002F4FD1A07900F0200055
:103E900000284AD0A07900F0400078B12168487825
:103EA000012304F12401A269FFF7B0FC10B1012045
:103EB000BDE8F081A07920F04000A071E1692068A0
:103EC00000F062FD0746002F2FD1256AE87A40F006
:103ED0002000E872207B2877A089010A6977E068D2
:103EE000010CA977E068010EE977207CA876208A8A
:103EF000010AE9762069000C28752069010E6975B0
:103F000000F061FA0646AE75310AE975310C297682
:103F1000310E6976A07920F02000A071012021687F
:103F20000871206801F0E0FA07463846C0E771B52D
:103F300091B001220AA911A8FEF71CFF044614B192
:103F4000204612B070BDCDF840D00AA8119900F0FB
:103F500057F9044600BF0CB12046F2E70F9D0DB99A
:103F60000620EEE7E87A00F0010008B10720E8E754
:103F7000A97EE87E41EA00212A7D687D42EA002090
:103F800041EA0046E87A00F01000D8B1022E01D2D2
:103F90000220D6E71C220AA903A800F0DEFC059641
:103FA000022103A8FFF792FB04460CB12046C8E7A4
:103FB00003A8FFF70EFB044604B90724042C01D024
:103FC0002046BEE70AA8FFF76BFB044654B926B1AA
:103FD00031460A9801F054FA04461CB90A9801F0D7
:103FE00083FA04462046ACE72DE9FF4F81B0044632
:103FF00015469A46DDF808B00020CAF80000A188EE
:10400000206801F069FC0090009818B1009805B094
:10401000BDE8F08FA07900F0800008B10220F6E73B
:10402000A07900F0020008B90720F0E7E068284412
:10403000E168884200D20025CEE02089C0F3080064
:10404000002875D1E0792168897888422CDBA06846
:1040500058B9D4F81090B9F1000F0BD100212068A5
:10406000FFF712F88146206104E061692068FFF7DC
:104070000BF88146B9F1000F00D1B0E0B9F1010FA2
:1040800005D1A07940F08000A0710220BFE709F1BE
:10409000010028B9A07940F08000A0710120B6E7A6
:1040A000C4F814900020E071A07900F0400090B1B5
:1040B00021684878012304F12401A269FFF7A6FBD7
:1040C00028B1A07940F08000A07101209FE7A0797D
:1040D00020F04000A07161692068FEF7BFFF06462E
:1040E0002EB9A07940F08000A07102208FE7E0791E
:1040F00006444FEA5528B8F1000F32D0E079404429
:1041000021688978884204D920688078E179A0EB19
:10411000010808F0FF032168487832465946FFF746
:1041200075FB30B1A07940F08000A07101206EE7EE
:1041300031E0A069801B40450DD2A069801B0BEBCC
:1041400040214FF4007204F1240000F006FCA07935
:1041500020F04000A071E0794044E0714FEA482728
:1041600030E0A069B04212D0D4E9020188420ED2F8
:10417000216848780123324604F12401FFF70DFB42
:1041800028B1A07940F08000A07101203FE7A6612E
:10419000E079401CE0712089C0F30800C0F5007789
:1041A000AF4200D92F462189C1F3080204F124014E
:1041B00050183A46594600F0D0FBA07940F0400034
:1041C000A07100BFBB44A0683844A060DAF80000CA
:1041D0003844CAF80000ED1B002D7FF42EAF00BF5D
:1041E000D4E90201884201D9A068E060A07940F0DA
:1041F0002000A07100200AE701464FF0FF30704711
:104200002DE9F341044602E00198401C0190019819
:1042100000782028F8D0019800782F2803D0019842
:1042200000785C2802D10198401C01900020A06019
:1042300001980078202807D200212046FFF746FA8F
:104240000646002060612BE000BF01A92046FEF772
:1042500077FF064606B122E02046FFF701F9064641
:10426000A069C07A00F0040726B1042E01D107B975
:10427000052614E007B112E06569E87A00F0100045
:1042800008B905260BE0A97EE87E41EA00212A7DD7
:10429000687D42EA002041EA0040A060D5E700BF07
:1042A0003046BDE8FC8170B504460D462046FEF759
:1042B00075FB70BD2DE9F04105460C46022C02D37A
:1042C000E869A04202D80120BDE8F0812F6A287871
:1042D000012804D002282AD0032870D140E02646C5
:1042E00006EB560607EB5621284600F04DFB00B1C1
:1042F00065E0C6F3080105F1300010F80180761C76
:1043000007EB5621284600F03FFB00B157E0C6F30B
:10431000080105F13000405C48EA002804F0010083
:1043200010B14FEA1810CFE7C8F30B00CCE707EB4A
:104330001421284600F028FB00B140E040F2FF10B5
:1043400000EA440105F13000415C40F2FF1000EA50
:10435000440205F130001044407841EA0020B3E700
:1043600007EBD411284600F00FFB00B127E040F224
:10437000FF1000EA840105F130000844C07801060E
:1043800040F2FF1000EA840205F13000104480780A
:1043900041EA004140F2FF1000EA840205F13000DA
:1043A0001044407841EA002040F2FF1101EA840203
:1043B00005F13001895C084320F0704084E700BFBC
:1043C0004FF0FF3080E700207047F0B505460B4600
:1043D00003F109022F69002F40D06869067B002194
:1043E0000AE0445C202C00D108E0052C00D1E52433
:1043F00000BF02F8014B491C0829F2DB00BF077A15
:10440000202F0FD02E2702F8017B082107E0445C03
:10441000202C00D105E000BF02F8014B491C0B29FC
:10442000F5DB00BFC77A1F72C77F4FEA076C877F33
:104430004CEA074C477F4CEA072790F81CC047EA34
:104440000C071F6090F818C0477E4CEA07279F8032
:1044500090F816C0C77D4CEA0727DF800027177049
:10446000F0BD0000A2B04FA207CA1FAB07C300BF38
:1044700034216846FCF7A0F8012144F20500FCF75E
:104480002DFEFCF7A1FCFEF753FB49A0FBF714FF40
:104490001AA8FCF733FE00BF4B491A98B0FBF1F5A0
:1044A00029464AA0FBF708FF47491B98B0FBF1F5E6
:1044B00029464EA0FBF700FF43491C98B0FBF1F5DD
:1044C000294651A0FBF7F8FE3F491D98B0FBF1F5D6
:1044D000294654A0FBF7F0FE59A0FBF7EDFE60491A
:1044E0000020FFF7A3FA5FA0FFF721FD60A0FBF714
:1044F000E3FE69460DA8FFF775FB00284BD15EA0CF
:10450000FBF7DAFE40E061A0FBF7D6FE9DF858000D
:1045100000F02000002837D09DF8590000B939E09C
:104520000DF159015DA0FBF7C7FE01220DF1590104
:104530006048FFF791FA6049087001205F49086000
:10454000002400BF002403E000205D490855641CDE
:10455000B4F5007FF8D3594B4FF4007258495548D1
:10456000FFF774FB54490870554951A0FBF7A4FEAE
:104570005148007818B9514800680028E2D100BFBE
:1045800000BF4C48FFF767F914A90DA8FFF747FCD7
:104590000028B8D000BF04E000F09CF849A0FBF769
:1045A0008BFEF9E768656C6C6F20746F6D0D0A0007
:1045B00077656C636F6D6520746F20746F6D313833
:1045C000383838380D0A000040420F000D0A5359A0
:1045D00053434C4B5F4672657175656E6379203D40
:1045E000202564204D487A0A000000000D0A484347
:1045F0004C4B5F4672657175656E6379203D202571
:1046000064204D487A0A00000D0A50434C4B315F3C
:104610004672657175656E6379203D202564204D75
:10462000487A0A000D0A50434C4B325F467265715E
:1046300075656E6379203D202564204D487A0A0017
:1046400077656C636F6D6520746F206D7920636F83
:104650006D7075746572313331340D0A00000000DD
:10466000F8090020746F6D5F6D696E2E74787400A8
:10467000313131310D0A00006F70656E206469724E
:1046800020737563636573730A000000726561646B
:1046900020646972204F4B0A000000000D0A20665A
:1046A000696C65206E616D652069733A0A2020206F
:1046B00025730A00300300203C0000203400002055
:1046C0007807002033333333333333333333330D0D
:1046D0000A0000001CB52F492FA0FBF7EDFD334861
:1046E000012100234FF4FA72CDE9001030A13348C4
:1046F00001F01AFB0446012C03D031A0FBF7DCFDCE
:1047000002E037A0FBF7D8FD3F48022100234FF419
:10471000FA72CDE900103DA1404801F005FB0446C6
:10472000012C03D03EA0FBF7C7FD02E045A0FBF73C
:10473000C3FD4F48032100234FF4FA72CDE9001066
:104740004CA14F4801F0F0FA0446012C03D04DA0D3
:10475000FBF7B2FD02E053A0FBF7AEFD5B4801237F
:104760001A464FF4FA61009059A001F065FC5D49CA
:1047700008600846006818B95BA0FBF79DFD02E0E1
:1047800061A0FBF799FD01F037F867A0FBF794FDF6
:1047900000201CBD6961000877656C636F6D652042
:1047A000746F205B25735D0D0A000000240000205B
:1047B000446174615F7061636B000000610B00080D
:1047C000446174615F7061636B207461736B20631B
:1047D0007265617465206661696C65640D0A00002C
:1047E000446174615F7061636B207461736B2063FB
:1047F0007265617465207375636365737366756C48
:104800006C790D0A000000002800002044617461EA
:104810005F7472616E73666572000000E50B0008DC
:10482000446174615F7472616E7366657220746155
:10483000736B20637265617465206661696C656481
:104840000D0A0000446174615F7472616E73666585
:1048500072207461736B2063726561746520737577
:10486000636365737366756C6C790D0A00000000F4
:104870002C000020446174615F73656D610000006D
:10488000A50B0008446174615F73656D61207461FC
:10489000736B20637265617465206661696C656421
:1048A0000D0A0000446174615F73656D612074617D
:1048B000736B2063726561746520737563636573E0
:1048C0007366756C6C790D0A00000000B555000820
:1048D000746573743154696D65725F48616E646CA0
:1048E00065000000300000204661696C656420743A
:1048F0006F20746573743154696D65725F48616EC1
:10490000646C650D0A000000737563636573732042
:10491000746F20746573743154696D65725F48619A
:104920006E646C650D0A000032323232323232323D
:104930000D0A0000F0B503461C460D46002000BFDE
:10494000161EA2F1010207D014F8017B15F801CB65
:10495000A7EB0C06301EF3D0F0BD70B503460C4635
:1049600003E014F8015B03F8015B151EA2F10102DC
:10497000F7D170BD30B5034601E003F8011B141EEA
:10498000A2F10102F9D130BD2DE9F04104460D46F6
:10499000E66AAE422FD0207908B360780123324610
:1049A00004F13001FEF732FF10B10120BDE8F081C3
:1049B00000202071A169206A0844B0420FD9E7782D
:1049C0000AE0A069064460780123324604F1300110
:1049D000FEF71CFF781EC7B2012FF2DC00BF55B1F5
:1049E000607801232A4604F13001FEF7D6FE08B1B3
:1049F0000120DBE7E5620020D8E700002DE9F04167
:104A000005460E461C4807681C480068001D00F05B
:104A1000E5FD50B91948006890F82C100120884035
:104A200017490968814316480160681C38B936B1D6
:104A300012480168091D134800F00EFE1AE07C19A7
:104A40000E4800684460BC4207D20C480168091D4A
:104A50000D48006800F0E6FD0CE008480168091DFB
:104A60000A48006800F0DEFD09480068844201D26F
:104A700007480460BDE8F081680000205400002071
:104A80006C000020DC0C00205C000020580000209E
:104A90008400002010B5044600F0EAFD23480068B9
:104AA000401C224908602248006840B92048046040
:104AB0000846006801280DD100F0A4F90AE01D485D
:104AC000006838B91A480068C06AE16A884201D8AB
:104AD0001748046018480068401C1749086094F89B
:104AE0002C100120884015490968084313490860C3
:104AF000E16A01EB8101124A02EB8100211D00F005
:104B0000ABFD00F0C7FD0B48006868B108480068BD
:104B1000C06AE16A884207D24FF0805009490860B4
:104B2000BFF34F8FBFF36F8F10BD000064000020F4
:104B30005400002070000020800000206C00002045
:104B4000280C002004ED00E010B500F091FD0C48A9
:104B5000006890B90B4800F055FD0B4800F052FD7D
:104B600008480A49086008480949086000220C21E1
:104B7000042000F0FBFE0249086000F08BFD10BD30
:104B800098000020F00C0020040D00209000002070
:104B90009400002010B516E000F06AFD0C48C068D3
:104BA000C468201D00F01AFD0A480068401E09492B
:104BB000086009480068401E0749086000F06AFD67
:104BC000204600F055F8044800680028E4D110BDE4
:104BD000C80C0020640000206000002070B504466E
:104BE0000D46206C70B1216CE0680144E160D4E9AD
:104BF0000210884201D32168E1602846226CE168F6
:104C0000FBF75BFC70BD2DE9F04104460F461546ED
:104C10004FF00008A66B206C28B37DB93946226C92
:104C20006068FBF74AFC216C606808446060D4E966
:104C30000101884217D32068606014E03946226C75
:104C4000E068FBF73AFC216CE068411AE1602168FA
:104C5000E068884203D2216CA068411AE160022D0D
:104C600001D106B1761E701CA0634046BDE8F081FC
:104C700010B50446206B00F01DFD204600F01AFD23
:104C800010BD00000146084A126812680AB90122E4
:104C900000E000220A600A6822B9034A1268D2685A
:104CA000106800E000207047900000200A4A22F0BF
:104CB00007000A4A10600022084B5A6044F2F8329A
:104CC000074B5A6000221A60014644F2F8324A60EB
:104CD0001A460A6070470000200D0020A400002042
:104CE000AC00002000BFFFF755FF06480068012810
:104CF000F9D94FF0805004490860BFF34F8FBFF3DC
:104D00006F8FF0E7280C002004ED00E02DE9F04162
:104D100006460D4617469846069C0DB9246000E0ED
:104D20002760E66325640121204600F03DFEBDE8D2
:104D3000F0812DE9F05F81460E4617469A46DDF870
:104D400028800C9CB900A522206BFBF72DFC781E57
:104D5000216B01EB800B2BF0070B86B1002507E0E0
:104D6000715D04F134004155705D00B902E06D1CC5
:104D7000102DF5D300BF00214320015502E0002093
:104D800084F83400B8F1050F01D34FF00408C4F8DB
:104D90002C80201D00F043FC04F1180000F03FFCC3
:104DA0002461C8F10500A06164620020606484F899
:104DB000480052464946584600F050FB20600B9888
:104DC00008B10B980460BDE8F09F2DE9F047054657
:104DD0000E4617469846DDE908948CB1FFF7B4FEFD
:104DE0002560A661C4F81C80C4F82090201D00F046
:104DF00016FC2FB194F8240040F0040084F824003D
:104E0000BDE8F08710B5002407E004EB84010F4AE9
:104E100002EB810000F0F6FB641C052CF5D30C4876
:104E200000F0F0FB0B4800F0EDFB0B4800F0EAFB54
:104E30000A4800F0E7FB0A4800F0E4FB044809498F
:104E4000086004480849086010BD0000280C0020D4
:104E50008C0C0020A00C0020B40C0020C80C0020FA
:104E6000DC0C0020580000205C0000202DE9F041FF
:104E700004460D4616461F464FF000086560246143
:104E8000B5420CD8F01BA169884202D34FF001084B
:104E900011E0211D0948006800F0C4FB0BE0BE4290
:104EA00004D2BD4202D34FF0010804E0211D0448A2
:104EB000006800F0B7FB4046BDE8F0819400002098
:104EC0009000002070B5054600F0D2FBA86B08B931
:104ED000012400E0002400F0DDFB204670BD70B529
:104EE000054600F0C5FBA86BE96B884201D101249F
:104EF00000E0002400F0CEFB204670BDF8B505466A
:104F00000E4614480068C068C468201D00F066FBA7
:104F100094F8240000F0040088B1A06941192B46E0
:104F200032462046FFF7A2FF78B1002003462A460A
:104F300001460090204601F0B9F8074605E094F8D4
:104F4000240020F0010084F824002046216A8847CC
:104F5000F8BD00009000002070B586B06DE00398A9
:104F600000286ADB059C606908B9012000E0002088
:104F700010B9201D00F032FB02A800F0BFF8054672
:104F800003980A2857D2DFE800F00905072D3546B7
:104F900006082E3600BF00BF00BF00BF94F82400F3
:104FA00040F0010084F824000498A26981180346A7
:104FB0002A462046FFF75AFF98B12046216A8847C3
:104FC00094F8240000F0040058B1002000900498E8
:104FD000A169421800231946204601F067F80646E9
:104FE00000BF29E000BF94F8240020F0010084F8FD
:104FF000240021E000BF94F8240040F0010084F870
:1050000024000498A061A06941192B462A46204635
:10501000FFF72CFF10E094F8240000F0020018B90C
:10502000204600F047FB05E094F8240020F0010042
:1050300084F8240000E000BF00BF002203A9044858
:10504000006800F0C1FD002889D106B070BD0000E5
:1050500098000020F8B505460C4600F005FC6846AF
:1050600000F04CF80646009820BB44B9B54206D87B
:1050700000F06EFF31462846FFF740FF1CE03CB1D0
:105080000E480068006808B9012000E000200446CE
:10509000A91B22460A48006800F038FB00F058FFC0
:1050A00050B94FF0805007490860BFF34F8FBFF3EE
:1050B0006F8F01E000F04CFFF8BD0000940000206D
:1050C0009800002004ED00E00A490968096809B960
:1050D000012100E0002121B14FF0FF31064A1160AB
:1050E00006E004490968C968C868034A4168116054
:1050F00070470000580000208400002070B504466E
:1051000000F052FE054607480068854204D200F0D0
:105110000BF80120206001E00020206001480560BC
:10512000284670BDA00000202DE9F84328E01E4865
:105130000068C06805681C480068C068C468201D15
:1051400000F04CFA2046216A884794F8240000F0C9
:105150000400A8B1A0694619AE4207D9666024616F
:10516000211D1148006800F05DFA09E000200346A7
:105170002A4601460090204600F098FF804600BF76
:1051800009480068006808B9012000E000200028F4
:10519000CDD0054807680548006803490860034802
:1051A0000760BDE8F8830000900000209400002014
:1051B00000BFBF2080F31188BFF34F8FBFF36F8F05
:1051C00000BF00BFFEE708B500BF6846FFF75AFD05
:1051D000044620460099FFF73DFFFFF7BDFEF4E7C8
:1051E00070B5044600F044FA94F9455010E0606A46
:1051F00008B9012000E0002038B904F1240000F0D3
:1052000067FE18B100F0CEFA00E003E0681E45B278
:10521000002DECDC00BFFF2084F8450000F03AFAD6
:1052200000F026FA94F9445010E0206908B90120F2
:1052300000E0002048B904F1100000F049FE08B178
:1052400000F0B0FA681E45B200E001E0002DECDC91
:1052500000BFFF2084F8440000F01CFA70BD2DE967
:10526000F04705460C461646022C02D3E869A042D8
:1052700001D8022793E0D5F820A02878012804D08F
:10528000022841D003287DD157E0A04608EB5808FA
:105290000AEB58212846FFF777FB074607B17BE06A
:1052A000C8F3080105F1300001EB000904F001002A
:1052B00028B1F1B299F8000061F31F1000E0304608
:1052C00089F8000008F10108012028710AEB582133
:1052D0002846FFF759FB074607B15DE0C8F3080110
:1052E00005F1300001EB000904F0010010B1C6F334
:1052F000071006E099F8000000F0F000C6F3032163
:10530000084389F8000047E00AEB14212846FFF71C
:105310003BFB074607B13FE040F2FF1000EA4402C2
:1053200005F130008654310A40F2FF1000EA4402D1
:1053300005F13000104441702EE00AEBD4112846EC
:10534000FFF722FB074607B126E040F2FF1000EA14
:10535000840205F130008654310A40F2FF1000EA61
:10536000840205F1300010444170310C40F2FF100E
:1053700000EA840205F1300010448170310E40F2E1
:10538000FF1000E006E000EA840205F1300010445E
:10539000C17001E0022700BF00BF0120287138461C
:1053A000BDE8F0872DE9F04104464FF0000800F019
:1053B0005BFA2648006820B9FFF778FC01202349F2
:1053C000086044B1083404F0070020B104F007007D
:1053D000C0F108000444002C32D044F2F83084427A
:1053E0002ED21B4F3846056801E02F462D686868AD
:1053F000A04202D228680028F7D1164885421FD063
:10540000386800F10808286838606868001B1028B0
:1054100010D92E196868001B70606C6071680C48A8
:1054200000E00068026852688A42FAD3026832607B
:10543000066000BF084968680968081A06490860DC
:1054400000F086FD4046BDE8F0810000B800002075
:10545000A4000020AC000020B4000020001F4FF08A
:1054600080730360001F21F001030360001F034BE2
:10547000036014380260203870470000B151000802
:105480002DE9F04104460E46022E02D3E069B042F7
:1054900001D8022725E000271FE031462046FEF70D
:1054A00009FF054605B91BE0012D01D1022717E0D0
:1054B000681C08B9012713E0002231462046FFF797
:1054C000CEFE074607B10BE02069401C20B12069E1
:1054D000401C2061012060712E46E069B042DCD89A
:1054E00000BF3846BDE8F08170B504460021204673
:1054F000FFF74AFA0546002D59D1207803284FD1ED
:10550000607900284CD00020E0624FF40072002146
:1055100004F13000FFF72EFA552184F82E12AA214B
:1055200084F82F12522084F8300052213120015586
:10553000612132200155412133200155722184F827
:10554000141284F81512412184F81612612184F88E
:105550001712217C84F81812208A010A84F8191283
:105560002069010C84F81A122069010E84F81B12BC
:10557000217B84F81C12A089010A84F81D12E068BE
:10558000010C84F81E12E068010E84F81F12607886
:10559000012304F130016269FEF738F900206071DF
:1055A000607800221146FEF7F5F800B10125284683
:1055B00070BD000010B50446024903A0FAF77CFE56
:1055C00010BD00001861000877656C636F6D652081
:1055D000746F205B25735D0D0A00000001460A69A7
:1055E000D1E901309860D1E90103586050688842E0
:1055F00001D188685060002008611068401E10606A
:105600001068704700F1080141604FF0FF31816080
:1056100000F10801C16001610021016070470021B3
:105620000161704710B502460B685C1C0CB910692B
:1056300007E002F1080000E04068446824689C42EA
:10564000FAD944684C604C68A160886041600A6186
:105650001468641C146010BD42684A6093688B60D3
:10566000936859609160086103685B1C0360704730
:1056700000BFBF2080F31188BFF34F8FBFF36F8F40
:1056800000BF03480068401C0149086070470000E3
:10569000BC00002006480068401E05490860084616
:1056A000006820B9002080F3118800BF00BF704758
:1056B000BC00002070B506463546B6B1083D2C4604
:1056C00000F0D2F86168094800E00068026852689A
:1056D0008A42FAD30268226004600549606809685A
:1056E00008440349086000F033FC70BDA4000020AA
:1056F000B400002000204FF0E021086188610248DA
:1057000048610720086170473F1901002DE9F04109
:1057100005460E4617462C46FFF7AAFF94F94400AB
:10572000401C10B9002084F8440094F94500401C46
:1057300010B9002084F84500FFF7ACFFA06B28B932
:105740003A46314604F1240000F042F82046FFF7C3
:1057500047FDBDE8F081000070B50446002544B166
:1057600000F082F800212046FFF748F900F0F0FB36
:1057700005463DB94FF0805003490860BFF34F8F95
:10578000BFF36F8F70BD000004ED00E003490968AE
:105790000160034909684160704700007C000020F7
:1057A000680000200120014908607047780000204F
:1057B00070B505460C460548016818312846FFF7C4
:1057C00031FF01212046FFF719F970BD5400002078
:1057D00070B506460D461446064801681831304635
:1057E000FFF73AFF0CB14FF0FF3521462846FFF78F
:1057F00005F970BD540000201CB5144800210B466B
:105800008022CDE9001012A1134800F08DFA044661
:10581000012C02D100F02CFC0446012C14D100BF55
:10582000BF2080F31188BFF34F8FBFF36F8F00BF8E
:105830004FF0FF3009490860012009490860002045
:105840000849086000F05EF81CBD000088000020D8
:1058500049444C4500000000E54C0008840000204D
:10586000700000206800002002480068401C0149C8
:10587000086070478C0000201248006818B10120B1
:10588000114908601DE000200F4908600F480068BA
:10589000B0FA80F0C0F11F0101EB81020C4B03EB69
:1058A000820042685268426000F1080243689342F5
:1058B00002D14268526842604268D268054B1A6061
:1058C00000BF70478C000020780000206C00002092
:1058D000280C00205400002070B504460D4624B169
:1058E000207810B1E088A84201D0092070BD60780E
:1058F000FDF778FF00F0010008B10320F6E7002073
:10590000F4E7000010B50A48006840F47F00084939
:1059100008600846006840F07F400860FFF7EAFE34
:10592000002004490860FAF76BFC002010BD00005D
:1059300020ED00E0BC00002010B500BFBF2080F3C8
:105940001188BFF34F8FBFF36F8F00BF00F032FAA3
:1059500018B14FF080500449086000BF002080F368
:10596000118800BF10BD000004ED00E02DE9F843F0
:1059700007460D4690460DB9002601E007FB05F6E7
:1059800006F14800FFF70EFD04464CB1A14609F1AF
:10599000480943464A46294638460094FFF7B6F977
:1059A0002046BDE8F883000070B505460E462C463B
:1059B000FFF75EFED4E90F12206801FB0200A06031
:1059C0000020A06320686060E06B401E226C2168AC
:1059D00000FB0211E160FF2084F8440084F84500D8
:1059E0009EB9206908B9012000E00020A8B904F19F
:1059F000100000F06DFA80B14FF080500949086046
:105A0000BFF34F8FBFF36F8F07E004F11000FFF774
:105A1000F9FD04F12400FFF7F5FDFFF73BFE01203F
:105A200070BD000004ED00E02DE9FF4383B00746A0
:105A300088461D464FF000093C4600BFFFF718FEA0
:105A4000A06BE16B884201D3022D28D12A46414642
:105A50002046FFF7D8F80646606A08B9012000E042
:105A6000002068B904F1240000F032FA88B14FF048
:105A7000805032490860BFF34F8FBFF36F8F08E04B
:105A80003EB14FF080502D490860BFF34F8FBFF3F8
:105A90006F8FFFF7FFFD012007B0BDE8F083059889
:105AA00018B9FFF7F7FD0020F6E7B9F1000F04D1B0
:105AB00001A8FFF76BFE4FF00109FFF7EBFDFFF7C1
:105AC000D3FEFFF7D5FD94F94400401C10B9002027
:105AD00084F8440094F94500401C10B9002084F873
