:020000040800F2
:10000000B0100020DD0100087F0700087707000816
:100010007B070008B1050008651A00080000000011
:100020000000000000000000000000004D16000865
:10003000B5050008000000005D02000881170008F7
:10004000F7010008F7010008F7010008F7010008B0
:10005000F7010008F7010008F7010008F7010008A0
:10006000F7010008F7010008F7010008F701000890
:10007000F7010008F7010008F7010008F701000880
:10008000F7010008F7010008F7010008F701000870
:10009000F7010008F7010008F7010008F701000860
:1000A000F7010008F7010008F7010008F701000850
:1000B000F7010008F7010008F7010008F701000840
:1000C000F7010008F7010008F7010008F701000830
:1000D000F7010008F7010008F7010008F701000820
:1000E000F7010008F7010008F7010008F701000810
:1000F000F7010008F7010008F7010008F701000800
:10010000F7010008F7010008F7010008F7010008EF
:10011000F7010008F7010008F7010008F7010008DF
:10012000F7010008F7010008F7010008F7010008CF
:1001300000F002F800F042F80AA090E8000C8244B7
:100140008344AAF10107DA4501D100F037F8AFF294
:10015000090EBAE80F0013F0010F18BFFB1A43F0A5
:1001600001031847801C0000A01C0000103A24BFA7
:1001700078C878C1FAD8520724BF30C830C144BF0C
:1001800004680C607047000000230024002500264E
:10019000103A28BF78C1FBD8520728BF30C148BFEA
:1001A0000B607047642900F0F980732900F0A0818A
:1001B000002070471FB51FBD10B510BD00F0C6F977
:1001C0001146FFF7F7FF01F08DFC00F0E4F903B4EE
:1001D000FFF7F2FF03BC01F047FC0000094880472D
:1001E00009480047FEE7FEE7FEE7FEE7FEE7FEE719
:1001F000FEE7FEE7FEE7FEE704480549054A064B31
:10020000704700009117000831010008B00C002071
:10021000B0100020B00E0020B00E0020EFF31080D0
:1002200072B6704780F3108870471D481D490170F1
:10023000002080F309881C48012101701B484FF001
:100240008051016062B6FEE718484FF080510160AE
:10025000704716484FF080510160704772B6EFF357
:10026000098028B1203880E8F00F1149096808603A
:1002700000B5104880475DF804EB0F480F490A7835
:1002800002700B480E490A680260106890E8F00F8F
:10029000203080F309884EF0040E62B670470000EB
:1002A00020ED00E00000FFFF5E00002004ED00E014
:1002B00064000020810D000853000020540000203D
:1002C0006C000020704700000FB4044910B503AA69
:1002D000029800F011F910BC5DF814FB0800002032
:1002E0002DE9F0410E460446002020622046E168D8
:1002F000884730B3252805D0D4E901219047206AEA
:10030000401CF2E7E168204600278847050018D026
:10031000A5F14100192802D820354FF40067324674
:10032000294620462760FFF73DFF40B1012804D051
:10033000F61D26F007060836D8E7361DD6E728460C
:10034000DAE7206ABDE8F08170B50C460546012A5F
:1003500005D02878800600D5EA69002302E0012351
:1003600005E05B1C934202D2E05C0028F9D1A86949
:10037000E618C01AA861286A184428622846AFF314
:10038000008004E0D5E9012114F8010B9047B44244
:10039000F8D32846AFF3008070BD00002DE9F0418E
:1003A0000646002410687529314616A510D0AFF313
:1003B0000080002802DA404213A507E031688A076E
:1003C00001D512A502E0490704D511A5012401E0D9
:1003D000AFF3008000210A2206F1240709E0B0FBF8
:1003E000F2FCB0FBF2F302FB1C00303078541846EC
:1003F000491C0028F3D123462A463046BDE8F04187
:1004000000F00BB8000000002D0000002B000000E1
:10041000200000007047704770472DE9F0470D46F7
:1004200099469246044600F124080168880604D5DE
:10043000E06921F01001216000E00120A84201DD07
:10044000471B00E00027A1697A1902EB0900081A8E
:10045000A0612078C00602D42046AFF300800026B9
:1004600008E0D4E901211AF806009047206A401CF0
:10047000761C20624E45F4DB2078C0060AD5204663
:10048000AFF3008006E0D4E9012130209047206AD4
:10049000401C2062381EA7F10107F4DC07E0D4E914
:1004A000012118F805009047206A401C2062281E90
:1004B000A5F10105F3DC2046AFF3008020780006AB
:1004C00002D50220BDE8F0870120FBE710B54369A3
:1004D00013B1AFF3008001E0FFF736FF012010BD3C
:1004E000127800F124010A7000224A700122EDE71F
:1004F00011684FF0FF32E9E7074B70B50D467B44BA
:1005000000F011F80446284601F0E0FA10B14FF06F
:10051000FF3070BD204670BDD315000001694A1C34
:1005200002610878704700B58FB0CDE90131002134
:10053000059105497944CDE9031011466846FFF756
:10054000CFFE0FB000BD0000E5FFFFFF754600F0D5
:100550002BF8AE4605006946534620F00700854655
:1005600018B020B5FFF748FEBDE820404FF0000668
:100570004FF000074FF000084FF0000B21F007018B
:10058000AC46ACE8C009ACE8C009ACE8C009ACE8CE
:10059000C0098D46704710B50446AFF30080204671
:1005A000BDE81040FFF713BE00487047500C002014
:1005B00000BFFEE77047000008B5012144F21D00AE
:1005C00000F0CAFF01214FF4F01000F0B5FF4FF426
:1005D0000170ADF8000018208DF8030003208DF89D
:1005E000020069461B4800F03BF84FF48060ADF80C
:1005F00000006946184800F033F84FF48060ADF809
:1006000000006946154800F02BF84FF48050ADF813
:1006100000006946114800F023F84FF48160ADF8FE
:10062000000004208DF8030069460A4800F018F81D
:100630004FF40060ADF800006946074800F010F87C
:100640004FF40060ADF800006946044800F008F877
:1006500008BD000000080140000C014000100140EE
:100660002DE9F04102460025002600200023002449
:10067000002791F803C00CF00F0591F803C00CF0AF
:10068000100CBCF1000F03D091F802C04CEA050534
:1006900091F800C0BCF1000F31D0146800202BE0AD
:1006A0004FF0010C0CFA00F3B1F800C00CEA03069D
:1006B0009E4220D183004FF00F0C0CFA03F7BC438D
:1006C00005FA03FC4CEA040491F803C0BCF1280FBE
:1006D00006D14FF0010C0CFA00FCC2F814C00AE07D
:1006E00091F803C0BCF1480F05D14FF0010C0CFA92
:1006F00000FCC2F810C0401C0828D1D31460B1F827
:1007000000C0BCF1FF0F34DD546800202EE000F182
:10071000080C4FF0010808FA0CF3B1F800C00CEA1D
:1007200003069E4221D183004FF00F0C0CFA03F711
:10073000BC4305FA03FC4CEA040491F803C0BCF185
:10074000280F05D100F1080C08FA0CF8C2F8148043
:1007500091F803C0BCF1480F07D100F1080C4FF02D
:10076000010808FA0CF8C2F81080401C0828CED303
:100770005460BDE8F08100BFFEE700BFFEE77047B0
:1007800002490143024A1160704700000000FA0567
:100790000CED00E010B500F013F800F02FFC00F0B5
:1007A0005BFC00F07BFC00F0FFFB00F0BBFB00F00B
:1007B0000FFD00F0B3FC00F0D9FC00F013F810BD01
:1007C0000548802102E0491E002204C00029FAD118
:1007D000024A034B1A607047500A00204C0C00205C
:1007E000880000207047000006480078012808D1E2
:1007F00005480078FF2804D203480078401C0249CD
:10080000087070475E0000205100002010B50024E1
:100810001A480078012830D1FFF700FD0446184837
:10082000007820B116480078401E15490870144819
:100830000078F8B913480078E0B900F02BFD1248B1
:100840001249097850F82100114908600F480078D2
:100850001049097888420DD00D480068806B401C13
:100860000B49096888630C480068401C0A49086005
:10087000FFF7EFFC2046FFF7D5FC10BD5E0000201F
:100880005100002052000020A40600205400002047
:100890006C000020530000203800002010B50B48E9
:1008A000007890B900F0F6FC094800780949087012
:1008B00009480749097850F82100084908600846A6
:1008C000006807490860FFF7B0FC10BD5E0000201B
:1008D0005400002053000020A40600206C000020DB
:1008E00064000020704700002DE9F04F85B081467C
:1008F0008A4693461C46DDE90F78129D002003903E
:10090000FFF78CFC03902348007830B10398FFF781
:1009100089FC3C2005B0BDE8F08F1F4850F824004A
:1009200088BB01201C4941F824000398FFF77AFC9A
:100930002A464146384600F0F1FD2B465A465146BC
:10094000484600F07BF904901198CDE900800295AB
:100950003A4620460E9B049900F0B2FC064636B992
:100960000E48007801280CD100F05AFC09E0FFF78E
:1009700055FC03900020084941F824000398FFF734
:1009800051FC3046C6E7FFE70398FFF74BFC2820F1
:10099000C0E7000051000020A40600205E000020F7
:1009A000704700002DE9F0410546002747480078D0
:1009B00010B14020BDE8F0813F2D01D13E20F9E784
:1009C000FFF72CFC0746FF2D03D14148006890F843
:1009D0003250404850F8254024B93846FFF722FCF1
:1009E0004320E7E7012C04D13846FFF71BFC3D20EC
:1009F000E0E714F8340F3849085C617888432178BF
:100A0000354A505414F834091146085C30B994F84A
:100A1000361032480078884330490870E06918B1D0
:100A20002046E16900F068FA666A16B1304600F0C7
:100A3000A5FA0020E06284F8300084F831002848EC
:100A40000078FF2804D226480078401C244908700A
:100A50003846FFF7E7FB00F04EFAFFF7DFFB0746EB
:100A60001F48007820B11E480078401E1C490870BD
:100A7000204600F041F81B480078401E19490870D4
:100A80000020144941F82500A06930B900206169AF
:100A9000886115496069086005E0D4E9050148618D
:100AA000D4E9051088611148006860610F4804604E
:100AB0000FA0E0643846FFF7B5FB0E480078012828
:100AC00001D100F0ADFB002074E7000051000020D0
:100AD00064000020A40600205600002055000020DD
:100AE000520000205F0000207000002068000020FD
:100AF0003F0000005E000020704770472DE9F04184
:100B000006460F4614464FF000081548007818B105
:100B100012202070BDE8F081FFF780FB8046FF2E99
:100B200003D11048006890F832600F4850F8265002
:100B30002DB94046FFF776FB43202070EAE7012DF0
:100B400005D14046FFF76EFB43202070E2E7EF64DB
:100B50004046FFF767FB0020207000BFDAE7000087
:100B60005100002064000020A40600207047704758
:100B70002DE9F04706460C464FF0000A00202060A1
:100B80006060FFF74BFB8246FF2E03D11C480068D4
:100B900090F832601B4850F826502DB95046FFF7A8
:100BA00041FB4320BDE8F087012D04D15046FFF7FB
:100BB00039FB4320F6E7287C00F0010020B95046BD
:100BC000FFF730FB4520EDE70027D5F80C90D5F86E
:100BD00008805046FFF726FB00E07F1C58F8041BF6
:100BE0000029FAD02760A9EB0700606060688300E5
:100BF00020688200314604A0FFF766FB0020D1E7A1
:100C000064000020A406002063757272656E742073
:100C10007072696F3A2025642C20667265652073B6
:100C2000697A653A2025642C2075736564207369A0
:100C30007A653A2025640D0A0000000070B504466C
:100C400010464FF080750560051F28462C60214E28
:100C5000051F28462E604FF01236051F28462E60CD
:100C60004FF00336051F28462E604FF00236051F51
:100C700028462E607610051F28462E60051F284640
:100C800029604FF01136051F28462E604FF01036B0
:100C9000051F28462E604FF00936051F28462E6096
:100CA0004FF00836051F28462E604FF00736051F07
:100CB00028462E604FF00636051F28462E604FF05E
:100CC0000536051F28462E604FF00436051F2846BE
:100CD0002E6070BD291400082DE9F04105464FF043
:100CE0000008FFF79BFA8046FF2D05D120480068D9
:100CF00090F83250012608E01D48006890F8320054
:100D0000A84201D1012600E000261A4850F82540EB
:100D10002CB94046FFF786FA4820BDE8F081012C47
:100D200004D14046FFF77EFA4320F6E794F834708A
:100D30001148C05D94F8351088430F49C8550846DE
:100D4000C05D30B994F836100C48007888430B49E0
:100D5000087094F8300040F0080084F830004046F5
:100D6000FFF760FA012E01D100F05AFA0020D4E713
:100D700064000020A406002056000020550000203A
:100D80007047000070B5054600261748007800B18E
:100D900070BD1648007800B1FAE71DB3FFF73EFAC0
:100DA00006461348006890F834401248005D104928
:100DB000096891F8351088430E4908550846005DCA
:100DC00040B90B48006890F836100B48007888430B
:100DD0000949087006480068C5623046FFF722FAE4
:100DE00000F01EFA00BFD3E751000020520000209F
:100DF00064000020560000205500002070B5002639
:100E000035480068401D3449086000F073F8FFF76A
:100E100005FA064631480068401C304908603046F3
:100E2000FFF700FA2E480078012853D12D480078AA
:100E300020B1012804D0022809D103E001250BE0EC
:100E4000002509E0012501202649087004E001255C
:100E500000202449087000BF00BF05B970BD2248BA
:100E6000046833E0FFF7DAF90646E06A50B3E06A57
:100E7000401EE062E06A28BB94F8300000F03700C2
:100E800040B114F8300F00F0C800207001206070ED
:100E9000303C02E0002084F8310094F8300000F08B
:100EA000080078B93434A0781049097808430F490C
:100EB000087020780E49085C6178084314F83419EA
:100EC0000B4A505464693046FFF7ACF994F832008D
:100ED0003F28C7D100BFC1E7840000208000002068
:100EE0005E000020740000207000002055000020EB
:100EF000560000207047704710B590F8342001F17B
:100F00000B039B5C90F83540A34301F10B04A35401
:100F100023469B5C23B98B7A90F83640A3438B72AF
:100F200010BD00002DE9F0415021114800F046F9B4
:100F300000250DE0681C86B20D4800EB051400EB9F
:100F400006170020207067600AA0E060681C85B268
:100F5000042DEFD3064800EB0514002020706060DC
:100F600004A0E060024804490860BDE8F081000088
:100F7000540200203F0000004000002030B5014630
:100F80004A6808682AB9CC68606028B100254560C5
:100F900002E0106000B142608B6800255D6230BDE8
:100FA00010B500F063FD10BD70B5C821114800F008
:100FB00005F900230FE0581C85B203EB83000D49AF
:100FC00001EB800405EB850001EB8006002020701A
:100FD0006660581C83B2092BEDD303EB83000549EF
:100FE00001EB800400202070606008460249086020
:100FF00070BD00008C0100203C00002000200B4947
:1010000008600B4908700B4908700B4908700B49C0
:1010100008700B4908600B4908600B4908600B49D0
:1010200008600B4908700B49087070478000002069
:1010300051000020520000205F0000205E000020D0
:1010400038000020600000204C00002048000020F4
:10105000500000207C00002000210A4A117000206E
:1010600004E00021084A1154411CC8B20828F8D3F2
:101070000021064A1170064A1170064A1160064A9C
:1010800011607047550000205600002053000020DA
:10109000540000206C0000206400002070B54FF464
:1010A0001371194800F08AF84FF48071174800F066
:1010B00085F8002413E0601CC5B2C4EBC40000EB4B
:1010C0004000114901EB8003C5EBC50000EB400077
:1010D00001EB80065E610EA0D864601CC4B2062CD1
:1010E000E9D3C4EBC40000EB4000074901EB8003E7
:1010F0000020586106A0D864002006490860024814
:101100000549086070BD0000A4070020A406002067
:101110003F000000700000206800002000B587B08C
:101120000320002180220A4BCDE90132CDE90310D2
:101130004FF6FF703F23074A00900748FFF7D4FBA4
:1011400006AA06A13F20FFF7D9FC07B000BD0000AA
:10115000A4040020A00600200114000875432F4FAE
:10116000532D49492049646C6500000000B587B0E3
:101170000320002180220A4BCDE90132CDE9031082
:101180004FF6FE703E23074A00900748FFF7ACFB7E
:1011900006AA06A13E20FFF7B1FC07B000BD000083
:1011A000A4020020A00400204114000875432F4F22
:1011B000532D4949205374617400000004E000225B
:1011C00000F8012B4A1E91B20029F8D170470000A7
:1011D0002DE9F04160211048FFF7F0FF00240DE0F9
:1011E000601C86B204EB44000B4901EBC00506EB22
:1011F000460001EBC0072F60601C84B2032CEFD3C4
:1012000004EB4400044901EBC005002028600846B7
:1012100002490860BDE8F081F00900207800002054
:1012200010B50024FEF7FAFF044613480078F8B919
:1012300012480078E0B900F02DF8114811490978FA
:1012400050F82100104908600E4800780F490978CD
:1012500088420DD00C480068806B401C0A49096820
:1012600088630B480068401C09490860FEF7ECFFE2
:101270002046FEF7D7FF10BD51000020520000208D
:10128000A4060020540000206C0000205300002021
:10129000380000200649074A1278885C0649095C34
:1012A000034A515C01EBC001044A11707047000011
:1012B000E31C0008550000205600002054000020C8
:1012C0002DE9F84F05460F4690469946DDE90AABF1
:1012D00000200090FEF7A2FF009042480468002C16
:1012E0007AD0183454F8040C3E4908600098FEF790
:1012F00099FF44F8187CA57600202076607660611E
:1013000044F814BC44F80CAC44F8108C0C9824F845
:10131000080C24F8069C0020E077E810207705F000
:101320000700E076217F01208840A077E17E012040
:101330008840607700206060E060A0602062A0626A
:101340006062E062206328A06063183C002606E02B
:10135000002104F1500040F82610701CC6B2012E86
:10136000F6DB2046FFF7BEFAFEF758FF00901F4855
:1013700040F825400098FEF755FF2046FFF710FB88
:10138000FEF74CFF00901A48006860610020A061E1
:101390001748006810B1164800688461144804605A
:1013A0003434A0781349097808431249087020782A
:1013B0001149085C6178084314F834190E4A5054F6
:1013C0000E480078401C0D4908700098FEF72AFF6F
:1013D0000020BDE8F88FFFE70098FEF723FF4220CA
:1013E000F7E70000680000203F000000A40600208E
:1013F0007000002055000020560000205F000020F3
:10140000002400BF00BFFEF709FF0446054800683E
:10141000401C044908602046FEF704FFFFF76DFBFF
:10142000F1E700006000002010B504480068FFF7F5
:101430009DFBFF20FFF7B6FA10BD000064000020FE
:1014400000BF00BF02E02820FFF79CFC1F48007887
:101450000028F8D01E4800686421B0FBF1F01C4958
:1014600008600846006828B900201A490870FF2063
:10147000FFF732FCFEF7D2FE0446154800686421EF
:101480004843154908602046FEF7CCFE00BFFEF732
:10149000C5FE0446104800681049086000200E4947
:1014A00008602046FEF7BEFE0C480068084909683F
:1014B000B0FBF1F0C0F1640006490870FFF757FB7C
:1014C00000F00EF81420FFF75DFCE0E7500000206C
:1014D0004800002044000020600000204C00002054
:1014E0007CB5002514E069462846FFF741FB064617
:1014F00066B9094850F8254044B1012C06D0D4E91A
:10150000020100EB810060640198A064681CC5B210
:101510003F2DE8DD7CBD0000A406002002F00103A1
:1015200043B102F002032BB102E0491E002308C0C0
:101530000029FAD17047000029B1064AD269024356
:10154000044BDA6104E0034AD2698243014BDA6159
:10155000704700000010024029B1064A9269024318
:10156000044B9A6104E0034A92698243014B9A61F9
:10157000704700000010024030B500210022002416
:1015800000232D4D6D6805F00C0121B1042905D013
:10159000082923D105E0294D056022E0274D05608B
:1015A0001FE0254D6D6805F47012234D6D6805F43C
:1015B0008034022505EB92421CB9214D554305604C
:1015C0000BE01D4D6D6805F400351DB11C4D5543F4
:1015D000056002E0194D5543056002E0174D0560B6
:1015E00000BF00BF144D6D6805F0F0010909154DED
:1015F0006B5C0568DD4045600F4D6D6805F4E0618A
:10160000090A104D6B5C4568DD4085600A4D6D68C8
:1016100005F46051C90A0B4D6B5C4568DD40C5603F
:10162000054D6D6805F44041890B074D6B5CC5683D
:10163000B5FBF3F5056130BD0010024000127A00E1
:1016400000093D0024000020340000207047000005
:1016500010B50446E1B2054800F000FA00BF402191
:10166000024800F05DF90128F9D110BD005000409A
:1016700010B500F001F810BD0CB5002001900090ED
:101680003348006840F480303149086000BF30487A
:10169000006800F4003000900198401C0190009810
:1016A00018B90198B0F5A06FF1D12948006800F48D
:1016B000003010B10120009001E00020009000985F
:1016C000012843D12348006840F0100021490860F8
:1016D0000846006820F0030008600846006840F0F3
:1016E000020008601A484068194948600846406886
:1016F00048600846406840F480604860084640689A
:1017000020F47C1048600846406840F4E8104860C7
:101710000846006840F08070086000BF0C48006810
:1017200000F000700028F9D00948406820F003005C
:10173000074948600846406840F00200486000BF22
:101740000348406800F00C000828F9D10CBD0000E7
:101750000010024000200240042808D14FF0E02190
:10176000096941F004014FF0E022116107E04FF0F8
:10177000E021096921F004014FF0E0221161704776
:1017800010B5FFF731F8FFF739FBFFF73FF810BD51
:1017900010B51348006840F0010011490860084680
:1017A0004068104908400E494860084600680E49E4
:1017B00008400B4908600846006820F48020086053
:1017C0000846406820F4FE0048604FF41F0088601F
:1017D000FFF74EFF4FF000600449086010BD0000A5
:1017E000001002400000FFF8FFFFF6FE08ED00E0E9
:1017F0001CB5044669462046FFF7BAF901988300F4
:1018000000988200214602A0FEF75EFD1CBD00008C
:1018100063757272656E74207072696F3A20256408
:101820002C20667265652073697A653A2025642CE0
:1018300020757365642073697A653A2025640D0A02
:101840000000000021B1828942F40052828104E04C
:1018500082894DF6FF731A40828170471FB54FF49D
:10186000E13000900020ADF80C000C20ADF80A002B
:101870000020ADF80800ADF80600ADF80400694698
:10188000224800F07FF801212048FFF7DBFF69467E
:101890001F4800F077F801211D48FFF7D3FF694684
:1018A0001C4800F06FF801211A48FFF7CBFF69468A
:1018B000194800F067F801211748FFF7C3FF694690
:1018C000164800F05FF801211448FFF7BBFF012222
:1018D00040F225510D4800F030F8012240F2255128
:1018E0000B4800F02AF8012240F22551094800F087
:1018F00024F8012240F22551074800F01EF8012289
:1019000040F22551054800F018F81FBD003801408D
:101910000044004000480040004C0040005000409F
:1019200002460020B1F5007F00D100BF13880B40B4
:101930000BB1012000E000207047F0B50346002401
:1019400000260025002040F66A17B94200D100BFEA
:101950001846C1F3421401F01F06012707FA06F5E5
:10196000012C01D10C3004E0022C01D1103000E038
:1019700014301AB107682F43076002E00768AF43CD
:101980000760F0BD2DE9F04786B005460E460024FD
:10199000A24600BFA1460027B08900B100BF2F4674
:1019A0002C8A4CF6FF700440F08804432C82AC89EA
:1019B0004EF6F3100440B08831890843718908431A
:1019C0000443AC81AC8A4FF6FF400440B089044325
:1019D000AC8201A8FFF7D0FD1F48874202D1DDF895
:1019E00010A001E0DDF80CA0A88900F4004040B18F
:1019F0000AEBCA0000EB0A1031684900B0FBF1F8AD
:101A000007E00AEBCA0000EB0A1031688900B0FB5E
:101A1000F1F86420B8FBF0F004012009642101FB17
:101A20001089A88900F4004040B1322000EBC900C1
:101A3000B0FBF1F000F00700044308E0322000EBB7
:101A400009106421B0FBF1F000F00F0004432C8179
:101A500006B0BDE8F087000000380140C1F308027D
:101A60008280704700BFFEE700BFFEE710B500BFF1
:101A70006FF00400FFF770FE104800681049B0FBDB
:101A8000F1F0104908700D4800680D49B0FBF1F401
:101A900041F28830444305200B4908804FF0E02094
:101AA000006940F002004FF0E021086108464461FF
:101AB000006940F00100086110BD00001000002026
:101AC00000127A00000000200200002001464FF0C2
:101AD000FF30704770B504460D462046FFF7B8FD4D
:101AE00070BD000010B58AB0FEF766FDFFF7B6FEC8
:101AF00021A12BA0FEF7E8FB05A8FFF73DFD334928
:101B00000598B0FBF1F4214631A0FEF7DDFB2F492B
:101B10000698B0FBF1F4214635A0FEF7D5FB2B4922
:101B20000798B0FBF1F4214638A0FEF7CDFB27491A
:101B30000898B0FBF1F421463BA0FEF7C5FBFFF788
:101B40002FFA4FF4A060FEF71BFEFEF723FE0120E4
:101B5000002140223B4BCDE90132CDE903100A20A0
:101B60000346384AFC3200903748FEF7BDFEFEF7C8
:101B700095FE00200AB010BD53544D33324631302B
:101B800033564554365F4150504C49434154494FB8
:101B90004E5F565F31315F3230313931303037008E
:101BA00077656C636F6D6520746F204150504C49B0
:101BB000434154494F4E2C2056455253494F4E20D5
:101BC00069732025732E0D0A0000000040420F00AB
:101BD0000D0A535953434C4B5F4672657175656EE0
:101BE0006379203D202564204D487A0A00000000DA
:101BF0000D0A48434C4B5F4672657175656E63799B
:101C0000203D202564204D487A0A00000D0A5043EB
:101C10004C4B315F4672657175656E6379203D206E
:101C20002564204D487A0A000D0A50434C4B325F20
:101C30004672657175656E6379203D202564204D7F
:101C4000487A0A008C0000204D1C00080F4910A0A3
:101C5000FEF73AFB18E013480068401C1149086081
:101C60000846016810A0FEF72FFBC820FFF78AF88E
:101C70000020FFF7BDFD0120FFF7BAFD0220FFF7AE
:101C8000B7FD0320FFF7B4FDE5E70000D81C00080E
:101C900077656C636F6D6520746F205B25735D0DD8
:101CA0000A0000000400002068656C6C6F20746FEF
:101CB0006D207468652066697273742075636F7334
:101CC0006969207461736B2C6861686168612C209C
:101CD00025640D0A0000000073746172745F746102
:101CE000736B00000001000200010003000100020C
:101CF00000010004000100020001000300010002D5
:101D000000010005000100020001000300010002C3
:101D100000010004000100020001000300010002B4
:101D200000010006000100020001000300010002A2
:101D30000001000400010002000100030001000294
:101D40000001000500010002000100030001000283
:101D50000001000400010002000100030001000274
:101D60000001000700010002000100030001000261
:101D70000001000400010002000100030001000254
:101D80000001000500010002000100030001000243
:101D90000001000400010002000100030001000234
:101DA0000001000600010002000100030001000222
:101DB0000001000400010002000100030001000214
:101DC0000001000500010002000100030001000203
:101DD00000010004000100020001000300010002F4
:101DE00000010000041E0008000000208C0000001C
:101DF0006C010008901E00088C00002024100000D8
:101E00008801000800000000000000000000000041
:101E10000000000000A24A040000000000000000D2
:101E20000102030406070809000000000102030480
:101E30000102030406070809020406080000000066
:101E40000000000000000000000000000000000092
:101E50000000000000000000000000000000000082
:101E60000000000000000000000000000000000072
:101E70000000000000000000000000000000000062
:101E80000000000000000000000000000000000052
:0400000508000131BD
:00000001FF
